:100000000C94160D0C94470D0C94470D0C94470D51
:100010000C94470D0C94470D0C94470D0C94470D10
:100020000C94470D0C94470D0C94470D0C94470D00
:100030000C94470D0C94470D0C94470D0C94470DF0
:100040000C94470D0C9411D90C94470D0C94470D4A
:100050000C94470D0C94470D0C942AEC0C94EEF480
:100060000C94470D0C9417F90C944DF90C94470D12
:100070000C94470D0C94470D0C94470D0C94470DB0
:100080000C94470D0C94470D0C94470D0C94470DA0
:100090000C94470D0C94470D0C94470D0C94BDF334
:1000A0000C94470D0C94470D0C94470D0C94470D80
:1000B0000C94470D0C94470D0C94470D0C94470D70
:1000C0000C94470D0C94470D0C94470D0C94C4F9F7
:1000D0000C94FAF90C94470D0C94470D0C94470DB1
:1000E0000C94470DB2ECBFECDBECE8EC02ED0FED4D
:1000F00029ED2BED2DED2FED37ED17F61CF621F642
:100100002BF635F6AEF63FF647F64FF659F663F6A0
:100110006DF67CF686F6AEF690F69AF6A4F6D0F674
:10012000D3F6C2F6C6F6CCF60AF7D7F6DBF6E1F65A
:10013000E5F6E9F6EFF6F3F6F7F60AF7FDF601F75E
:1001400005F7084AD73B3BCE016E84BCBFFDC12FEB
:100150003D6C74319ABD56833DDA3D00C77F11BEB8
:10016000D9E4BB4C3E916BAAAABE000000803F05BB
:10017000A84CCDB2D44EB93836A9020C50B99186EC
:1001800088083CA6AAAA2ABE000000803F000C9462
:1001900002ED0C9424F30C94D0F70C94E8EC0C943E
:1001A00035F60C941CF60C94F7F60C94D7F60C94D8
:1001B000F9F20C94EFF60C94A3F70C9459F60C9406
:1001C000553C0C94E9F60C9414F30C942EF80C9412
:1001D000CCF60C9401F70C94DBEC0C940FED0C9422
:1001E000BCF70C947C5E0C94BFEC0C94A4F60C94BD
:1001F0007CF60C94905E0C94F3F60C9481F90C94BC
:1002000029ED0C946DF60C94E1F60C9450F80C94D6
:10021000AEF70C94AEF60C942BED0C944FF60C94B8
:100220009AF60C9424FA0C942FED0C9401F30C9490
:1002300037ED0C94D0F60C9490F30C942BF60C94B0
:1002400023F30C9417F60C9451F30C94DBF60C94F6
:10025000FDF60C9405F70C943FF60C9463F60C94A1
:10026000B1D30C94D3F60C949A230C9447F60C94C7
:10027000E5F60C9421F60C942EFA0C9481FA0C9469
:10028000B2EC0C9477F90C94C2F60C9486F60C94AC
:1002900090F60C942DED0C94C6F60C940AF74D389C
:1002A0003420582059205A2045005430004D323413
:1002B000004D3233202573006175746F25692E67F8
:1002C000006572726F722077726974696E6720744C
:1002D0006F2066696C65004E6F7420534420707205
:1002E000696E74696E67002F005344207072696EE6
:1002F00074696E67206279746520002E0044656C15
:100300006574696F6E206661696C65642C2046694E
:100310006C653A200046696C652064656C6574659F
:10032000643A002E006F70656E206661696C6564CA
:100330002C2046696C653A200057726974696E67B3
:1003400020746F2066696C653A20002E006F70651E
:100350006E206661696C65642C2046696C653A2084
:10036000002E006F70656E206661696C65642C20DC
:1003700046696C653A200046696C652073656C655A
:1003800063746564002053697A653A200046696C9D
:1003900065206F70656E65643A20002E006F706591
:1003A0006E206661696C65642C2046696C653A2034
:1003B000004E6F772066726573682066696C653AD7
:1003C00020004E6F7720646F696E672066696C65E8
:1003D0003A20002220706F73002220706172656ED7
:1003E000743A2200535542524F5554494E452043CA
:1003F000414C4C207461726765743A2200747279C2
:10040000696E6720746F2063616C6C207375622D58
:1004100067636F64652066696C65732077697468CB
:1004200020746F6F206D616E79206C6576656C73DA
:100430002E204D4158206C6576656C2069733A001A
:1004400053442063617264206F6B006F70656E525D
:100450006F6F74206661696C656400766F6C756D92
:10046000652E696E6974206661696C656400534429
:1004700020696E6974206661696C006563686F3A13
:10048000004572726F723A0048617264636F64650E
:10049000642044656661756C742053657474696E7C
:1004A0006773204C6F616465640053746F72656498
:1004B0002073657474696E67732072657472696500
:1004C000766564002044002049002020204D333010
:1004D000312050005049442073657474696E67730D
:1004E0003A00205A0020590020204D323036205842
:1004F00000486F6D65206F666673657420286D6DAA
:10050000293A00204500205A0020580020420020AF
:10051000540020204D323035205300416476616E06
:10052000636564207661726961626C65733A205319
:100530003D4D696E20666565647261746520286D45
:100540006D2F73292C20543D4D696E207472617695
:10055000656C20666565647261746520286D6D2F19
:1005600073292C20423D6D696E696D756D20736530
:10057000676D656E742074696D6520286D73292C14
:1005800020583D6D6178696D756D205859206A65F8
:10059000726B20286D6D2F73292C20205A3D6D61C0
:1005A00078696D756D205A206A65726B20286D6DB3
:1005B0002F73292C2020453D6D6178696D756D2064
:1005C00045206A65726B20286D6D2F7329002054B9
:1005D0000020204D323034205300416363656C6548
:1005E000726174696F6E3A20533D616363656C6537
:1005F000726174696F6E2C20543D72657472616310
:100600007420616363656C65726174696F6E00204C
:100610004500205A0020590020204D32303120580A
:10062000004D6178696D756D20416363656C65721D
:100630006174696F6E20286D6D2F7332293A002026
:100640004500205A0020590020204D3230332058D8
:10065000004D6178696D756D2066656564726174C1
:10066000657320286D6D2F73293A00204500205AAC
:100670000020590020204D393220580053746570F5
:10068000732070657220756E69743A0053657474D6
:10069000696E67732053746F726564006563686F79
:1006A0003A005072696E7465722068616C7465649A
:1006B0002E206B696C6C28292063616C6C65642149
:1006C000006F6B00526573656E643A20000A00206B
:1006D0007A3A200020793A200020783A20004265BA
:1006E00064002200556E6B6E6F776E20636F6D6DC8
:1006F000616E643A202200486F74656E64206F66F4
:1007000066736574733A005A204F66667365742089
:100710003A20007A5F6D61783A20007A5F6D696EE9
:100720003A20005A204F6666736574005A204F665F
:1007300066736574206F6B00486F74656E64206F1C
:100740006666736574733A007A5F6D696E3A20006D
:10075000795F6D61783A2000785F6D61783A2000AA
:10076000785F6D696E3A2000205A3A0020593A00AD
:1007700020436F756E7420583A200020453A0020BF
:100780005A3A0020593A00583A004649524D5741CA
:1007900052455F4E414D453A4D61726C696E20562F
:1007A000313B20537072696E7465722F6772626C90
:1007B000206D617368757020666F722067656E3694
:1007C000204649524D574152455F55524C3A687444
:1007D0007470733A2F2F6769746875622E636F6D3A
:1007E0002F4572696B5A616C6D2F4D61726C696E29
:1007F0002F2050524F544F434F4C5F564552534950
:100800004F4E3A312E30204D414348494E455F54BA
:100810005950453A4D656E64656C204558545255A3
:100820004445525F434F554E543A32205555494442
:100830003A30303030303030302D303030302D30B4
:100840003030302D303030302D30303030303030AE
:1008500030303030300A0020423A0020453A00540F
:100860003A0020573A0020453A00543A00204240CE
:100870003A0020403A00202F003A00205400202F58
:100880000020423A00202F006F6B20543A000A0AE1
:10089000005374616E6461726420446576696174AA
:1008A000696F6E3A20000A004D65616E3A20000AB9
:1008B000002020207A3A200000793A2000783A205F
:1008C000003F537065636966696564206E756D628B
:1008D0006572206F66206C65677320696E206D6F8E
:1008E00076656D656E74206E6F7420706C617573C3
:1008F00061626C652E0A003F5370656369666965C5
:1009000064205920706F736974696F6E206F7574FD
:10091000206F662072616E67652E0A003F53706516
:10092000636966696564205820706F736974696FC4
:100930006E206F7574206F662072616E67652E0A77
:10094000003F5370656369666965642073616D700B
:100950006C652073697A65206E6F7420706C6175A8
:100960007361626C652E0A0046756C6C207375703D
:10097000706F72742061743A20687474703A2F2F0B
:1009800033647072696E74626F6172642E636F6D2E
:100990002F666F72756D2E7068700A004D343820A6
:1009A0005A2D50726F626520526570656174616284
:1009B000696C69747920746573742E2020205665E3
:1009C0007273696F6E20322E30300A003F566572A6
:1009D000626F7365204C6576656C206E6F74207055
:1009E0006C61757361626C652E0A002569206D6902
:1009F0006E2C2025692073656300456E642066694E
:100A00006C65206C69737400426567696E20666965
:100A10006C65206C697374000A00205A3A2000202B
:100A2000593A200020583A200042656400486F6D12
:100A30006520582F59206265666F7265205A000A3A
:100A40000020616E7469686F726172690A3A2000F1
:100A500020686F726172690A20002F3800766F6C0F
:100A6000746573200020566F6C7465732063617227
:100A7000676F6C20333A200020616E7469686F7272
:100A80006172690A3A200020686F726172690A20F7
:100A9000002F3800766F6C746573200020566F6CE1
:100AA00074657320636172676F6C20323A20002096
:100AB000616E7469686F726172690A3A2000206819
:100AC0006F726172690A20002F3800766F6C74654E
:100AD00073200020566F6C74657320636172676FBA
:100AE0006C20313A20000A0020647A333A2000203A
:100AF000647A323A200020647A313A20000A0020D9
:100B00007A633A2000486F6D6520582F592062653E
:100B1000666F7265205A00486F6D6520582F592006
:100B20006265666F7265205A00473238205830205F
:100B3000593000473238205830205930002569207C
:100B4000686F757273202569206D696E75746573A1
:100B500000446F6E65207072696E74696E672066FE
:100B6000696C6500473639005072696E7465722091
:100B700073746F707065642064756520746F206590
:100B800072726F72732E20466978207468652065D2
:100B900072726F7220616E6420757365204D3939F1
:100BA0003920746F20726573746172742E2028541A
:100BB000656D706572617475726520697320726508
:100BC0007365742E205365742069742061667465A2
:100BD000722072657374617274696E6729006F6B3D
:100BE000004E6F204C696E65204E756D62657220F7
:100BF0007769746820636865636B73756D2C204C2E
:100C0000617374204C696E653A20004E6F20436812
:100C100065636B73756D2077697468206C696E65A8
:100C2000206E756D6265722C204C617374204C6966
:100C30006E653A2000636865636B73756D206D693E
:100C4000736D617463682C204C617374204C696E01
:100C5000653A20004C696E65204E756D62657220A4
:100C60006973206E6F74204C617374204C696E65DB
:100C7000204E756D6265722B312C204C617374208F
:100C80004C696E653A20004D31313000446F6E651D
:100C900020736176696E672066696C652E006F6BE4
:100CA000004D323900737461727400765F30312DFB
:100CB000312E302E30002200656E717565696E67C9
:100CC0002022002200656E717565696E6720220022
:100CD0004D383420582059205A20450047343300DD
:100CE0004732380047343000473238004732382026
:100CF00058302059300047323820583020593000C1
:100D00004D35303000473431004D353030004734F8
:100D100030005430004D353030004734330054310A
:100D2000004D353030004D353030004D353030001D
:100D30004D353030004D353030004D353030004DC0
:100D4000353030004D353030004D353030004D35C8
:100D5000303000473431004D3530300047343100F9
:100D60004D35303000473431004D35303000473498
:100D700031004D35303000473431004D35303000D2
:100D8000473431004D35303000473431004D353077
:100D90003000473431004D35303000473431004D9C
:100DA00035303000473431004D353030005430009C
:100DB0005430004733340054300047323800473352
:100DC0003400543000473238004733340054300088
:100DD0004732380047333400543000473238004738
:100DE00034330047333400543000473238004D323A
:100DF00034004D3233202573004D383420582059AB
:100E0000205A2045005430004732382058302059AD
:100E10003000543000543100473730004D38342012
:100E2000582059205A204500543000473238205865
:100E3000302059300047323800FF01FF0000A04049
:100E40000000A0400000004033F39743008093432C
:100E500000005243000000000080934300000000A7
:100E600033F3974300809343000052430000000097
:100E700000000000000000006563686F3A004572E2
:100E8000726F723A0020636F6C64206578747275BB
:100E900073696F6E2070726576656E746564006547
:100EA00063686F3A007C3C3E5E2B3D3F2F5B5D3BB1
:100EB0002C2A225C00205A3A0020593A0020583A45
:100EC00000656E6473746F7073206869743A2000F3
:100ED00024F4D43050C38E20C2A24017828B7011EC
:100EE000127A910D816CD90AA861E108C75866078A
:100EF000615143061E4B5D05C145A7041A4111040B
:100F0000093D9803713931034036DB0265339102A4
:100F1000D4305402802E1D02632CEE01752AC501C7
:100F2000B028A001102781018F2564012B244B01DB
:100F3000E0223401AC211F018D200D01801FFC0037
:100F4000841EED00971DDF00B81CD200E61BC60012
:100F5000201BBC00641AB200B219A8000A19A00034
:100F60006A189900D117910040178B00B5168400BC
:100F700031167E00B31579003A157300C7146F005F
:100F800058146A00EE1366008813630025135E0090
:100F9000C7125B006C12570015125400C1115100AA
:100FA00070114F0021114B00D61049008D104700E1
:100FB0004610440002104200C00F4000800F3E0067
:100FC000420F3C00060F3B00CB0E3800930E37005B
:100FD0005C0E3500270E3400F30D3200C10D3100D8
:100FE000900D3000600D2E00320D2D00050D2C00EF
:100FF000D90C2B00AE0C2900850C29005C0C2700B5
:10100000350C27000E0C2600E80B2400C40B24002E
:10101000A00B23007D0B23005A0B2100390B21006C
:10102000180B2000F80A1F00D90A1E00BB0A1E0078
:101030009D0A1D00800A1D00630A1C00470A1B0050
:101040002C0A1B00110A1A00F7091A00DD09190001
:10105000C4091900AB091900920917007B0918008F
:10106000630917004C0916003609160020091600FE
:101070000A091500F5081500E0081400CC08140052
:10108000B8081400A4081400900813007D0812008A
:101090006B081300580812004608120034081100AB
:1010A000230811001208110001081100F0071000B8
:1010B000E0071000D0071000C0071000B0070F00B5
:1010C000A107100091070E0083070F0074070F009F
:1010D00065070E0057070E0049070E003B070D007D
:1010E0002E070E0020070D0013070D0006070D0048
:1010F000F9060C00ED060D00E0060C00D4060C000D
:10110000C8060C00BC060C00B0060C00A4060B00C0
:1011100099060C008D060B0082060B0077060B006B
:101120006C060B0061060A0057060B004C060A000D
:1011300042060A0038060A002E060A0024060A00A3
:101140001A060A001006090007060A00FD05090034
:10115000F4050900EB050900E2050900D9050900BD
:10116000D0050900C7050900BE050900B50508003E
:10117000AD050800A50509009C05080094050800B8
:101180008C050800840508007C050800740508002B
:101190006C050700650508005D0507005605080099
:1011A0004E05070047050700400508003805070001
:1011B000310507002A050700230507001C05060066
:1011C000160507000F0507000805060002050700C1
:1011D000FB040600F5040700EE040600E804060020
:1011E000E2040700DB040600D5040600CF04060075
:1011F000C9040600C3040600BD040600B7040600C7
:10120000B1040500AC040600A6040600A004050015
:101210009B04060095040500900406008A0405005E
:1012200085040500800406007A04050075040500A5
:10123000700405006B0405006604050061040500E8
:101240005C04050057040500520405004D04050028
:1012500048040500430405003E0404003A04050068
:1012600035040500300404002C04050027040400A4
:10127000230405001E0404001A04040016040500DB
:10128000110404000D040400090405000404040012
:1012900000040400FC030400F8030400F403040049
:1012A000F0030400EC030400E8030400E40304007A
:1012B000E0030400DC030400D8030400D4030400AA
:1012C000D0030400CC030400C8030300C5030300DB
:1012D00024F404D9201BC40C5C0E9804C4095F02DA
:1012E00065077101F405F900FB04B30048048700A9
:1012F000C10369005803550003034500BE023A00CC
:101300008402310053022A00290225000402200031
:10131000E4011C00C8011900AF0117009801140076
:1013200084011300710110006101100051010E00D1
:1013300043010D0036010B002B010B0020010B00B7
:10134000150109000C01090003010800FB00080059
:10135000F3000800EB000700E4000600DE000600D2
:10136000D8000600D2000600CC000500C70005002A
:10137000C2000500BD000400B9000400B50004006F
:10138000B1000400AD000400A9000400A5000300A2
:10139000A20003009F0004009B00030098000300CC
:1013A0009500020093000300900003008D000200EE
:1013B0008B00030088000200860002008400030006
:1013C000810002007F0002007D0002007B0002001D
:1013D000790002007700010076000200740002002C
:1013E00072000100710002006F0002006D00010038
:1013F0006C0002006A000100690002006700010041
:101400006600010065000100640002006200010046
:1014100061000100600001005F0002005D0001004A
:101420005C0001005B0001005A000100590001004E
:10143000580001005700010056000100550001004E
:10144000540001005300000053000100520001004D
:1014500051000100500001004F0001004E0000004B
:101460004E0001004D0001004C0001004B00000047
:101470004B0001004A000100490001004800000043
:10148000480001004700010046000000460001003E
:101490004500000045000100440001004300000039
:1014A0004300010042000000420001004100000032
:1014B00041000100400001003F0000003F0001002A
:1014C0003E0000003E0001003D0000003D00010024
:1014D0003C0000003C0000003C0001003B0000001C
:1014E0003B0001003A0000003A0001003900000012
:1014F0003900010038000000380000003800010009
:101500003700000037000100360000003600000000
:1015100036000100350000003500000035000100F4
:1015200034000000340000003400010033000000EB
:1015300033000000330001003200000032000000E0
:1015400032000100310000003100000031000100D4
:101550003000000030000000300001002F000000CB
:101560002F0000002F0000002F0001002E000000BF
:101570002E0000002E0001002D0000002D000000B4
:101580002D0000002D0001002C0000002C000000A8
:101590002C0000002C0001002B0000002B0000009C
:1015A0002B0000002B0001002A0000002A00000090
:1015B0002A0000002A000100290000002900000084
:1015C0002900000029000000290001002800000077
:1015D000280000002800000028000000280001006A
:1015E000270000002700000027000000270000005F
:1015F0002700010026000000260000002600000051
:101600002600000026000100250000002500000043
:101610002500000025000000250000002500010035
:10162000240000002400000024000000240000002A
:10163000240001002300000023000000230000001C
:10164000230000002300000023000000230001000D
:101650002200000022000000220000002200000002
:1016600022000000220001002100000021000000F3
:1016700021000000210000002100000021000000E6
:1016800021000100200000002000000020000000D8
:1016900020000000200000002000000020000000CA
:1016A000200001001F0000001F0000001F000000BC
:1016B0001F0000001F0000001F0000001F000100AD
:1016C0001E0000001E0000001E0000001E000000A2
:1016D0006563686F3A00504944204175746F7475B2
:1016E0006E652066696E6973686564212050757443
:1016F00020746865206C617374204B702C204B69DA
:1017000020616E64204B6420636F6E7374616E742D
:10171000732066726F6D2061626F766520696E74EA
:101720006F20436F6E66696775726174696F6E2EA4
:101730006800504944204175746F74756E65206669
:1017400061696C6564212074696D656F7574002032
:10175000403A006F6B20543A006F6B20423A0050C1
:101760004944204175746F74756E65206661696CBB
:101770006564212054656D706572617475726520B1
:10178000746F6F206869676800204B643A200020FE
:101790004B693A2000204B703A200020436C617363
:1017A0007369632050494420002054753A2000207A
:1017B0004B753A2000206D61783A2000206D696EEB
:1017C0003A200020643A200020626961733A2000C8
:1017D00070012C0190012701B0012201C0011D01FF
:1017E000F00118011002130130020E01600209011C
:1017F00090020401C002FF000003FA004003F5005C
:101800008003F000D003EB002004E6007004E10048
:10181000E004DC004005D700C005D2004006CD0042
:10182000D006C8008007C3003008BE00F008B90029
:10183000C009B400B00AAF00B00BAA00D00CA500DC
:10184000000EA000500F9B00C01096005012910097
:1018500000148C00C0158700B0178200B0197D00FD
:10186000D01B7800001E730040206E00902269009B
:10187000F024640040275F0090295A00E02B5500B7
:10188000102E500020304B0010324600E033410053
:1018900090353C001037370070383200A0392D00E9
:1018A000B03A2800A03B2300603C1E00103D190008
:1018B000903D1400103E0F00703E0A00C03E05002F
:1018C000003F000000000A0B02090C0D0E08070380
:1018D0000401000000000000000000000000000003
:1018E00000000000000000000000000000000000F8
:1018F00012111000000000000000000000000000B5
:10190000000000000000000000000102102020087C
:10191000081020401020408002010201080402014A
:1019200001020408102040808040201008040201B9
:101930008004020180402010080402010804020112
:101940000102040810204080010204081020408099
:1019500005050505070508080808020202020A0A2B
:101960000808040404040101010101010101030349
:10197000030303030303040707070C0C0C0C0C0CF4
:101980000C0C0202020206060606060606060B0BF1
:101990000B0B0B0B0B0B0000200023002600290073
:1019A0002C002F0032000001000003010601090194
:1019B00000002200250028002B002E0031003400FA
:1019C00002010000050108010B01000021002400B4
:1019D00027002A002D00300033000101000004011F
:1019E00007010A014E414E494E495459494E46CDD0
:1019F000CCCC3D0AD7233C17B7D13877CC2B3295C6
:101A000095E6241FB14F0A000020410000C84200A3
:101A1000401C4620BCBE4CCA1B0E5AAEC59D74006D
:101A20009A237C5E90F381F92EFA905E11241FBEFA
:101A3000CFEFD1E2DEBFCDBF00E00CBF1BE0A0E0E6
:101A4000B2E0ECE2F6E102E00BBF02C007900D92BB
:101A5000A63CB107D9F72BE1A6ECBBE001C01D9273
:101A6000AC3FB207E1F71AE1CAE2DAE100E006C0F2
:101A700022970109FE010BBF0F948202C032D107E9
:101A800080E00807A9F70E9472FA0D94040B0C94E9
:101A90000000DC01ED91FC910190F081E02D1994A2
:101AA000FC0114821782138212828EE39BE09183E1
:101AB000808308952EE33BE0FC013183208327815E
:101AC000222319F004960C940BCF0895CF92DF9245
:101AD000EF92FF920F931F93CF93DF93EC01895AFC
:101AE0009F4F0E94500DCE0188589F4F0E94500D6D
:101AF0007E0127E9E20EF11C87016E0133E3C31A70
:101B00003EEFD30AC8010E94500D015E1F4F0C1515
:101B10001D05C1F7FE01E153FE4F89E18183148267
:101B20003596178ACE018E509E4F0E94500DFE01B1
:101B3000ED55FD4F10821182128213823896108269
:101B40001182128213821A821B821C8218821982CD
:101B50006E0189E5C81A8DEFD80AF601108211824C
:101B600012821382F80111821082FE01EF5EFD4F96
:101B7000108286E391E0F7019C01119221503040E0
:101B8000E1F7FE01E155FD4F81E08083CB5ADF4F45
:101B9000198218820E9438F568577C4E8F4F9F4FEC
:101BA000F6016083718382839383DF91CF911F91CC
:101BB0000F91FF90EF90DF90CF900895FC0120E00F
:101BC0003EE2DB014C91403241F0283011F4308389
:101BD0003196DB014C91408331962F5F6F5F7F4FD1
:101BE0002B3079F7108208952F923F924F925F9297
:101BF0006F927F928F929F92AF92BF92CF92DF921D
:101C0000EF92FF920F931F93CF93DF93CDB7DEB781
:101C1000C858D1090FB6F894DEBF0FBECDBF8C01F6
:101C20006B017A01CA57DF4F1882C658D04084E052
:101C3000E80EF11C180192E1290E311CF801EC5A52
:101C4000FF4FC957DF4FF983E883C758D040580189
:101C5000F0E5AF1AFDEFBF0A38018EE4681A8DEF88
:101C6000780A80E4482E512C4C0E5D1E94E0490EFB
:101C7000511CA101BE016F5F7F4FC7010E9470CD53
:101C800018160CF013C12C85322F3871303109F041
:101C900099C0F501808191810197029708F492C063
:101CA000BE016F5F7F4FCE0187589F4F0E94DE0DB0
:101CB000A0961FAEA097F6018081811107C061EF49
:101CC00072E0CE01815A9F4F0F94A907B601CE0151
:101CD000815A9F4F0F94A907BE0167587F4FCE01CD
:101CE000815A9F4F0F94A90761EF72E0CE01815A8C
:101CF0009F4F0F94A907CE01805C9F4F0E94500D0B
:101D000021E0AE0147585F4FB701C2010E9414D1D4
:101D1000811131C0F50180819181892B61F5EBE75B
:101D2000F4E064914F01662369F0772767FD7095B1
:101D30008CEB9AE10E94490DFFEF8F1A9F0AF40184
:101D40006491F1CF63EF72E08CEB9AE10E94BFFAED
:101D50006AE070E08CEB9AE10E94490DBE01675881
:101D60007F4F8CEB9AE10E94BFFA6AE070E08CEB47
:101D70009AE10E94490D8BE1FE01EC5BFF4FDE0111
:101D8000959601900D928A95E1F724968EAD9FADC0
:101D900024979CA38BA38EE39BE09AA389A3AE0117
:101DA0004F5D5F4FBE01615A7F4FC8010E94F40D25
:101DB000CE0181960E945A0DCE01805C9F4F0E94F9
:101DC0005A0D57CF8981882309F470C0853E09F4E4
:101DD00050CF8E3209F44DCF8F3509F44ACFF80138
:101DE0008289882331F08E3209F443CF8F3509F48C
:101DF00040CF23FD3ECF81E0303109F080E0C9576C
:101E0000DF4FE881F981C758D0408083811108C035
:101E10008985873409F02DCF8A858E3709F429CF3B
:101E20004801F5E08F0E911CBE016F5F7F4FC4012A
:101E30000E94DE0DF50180819181009789F4B60141
:101E40008CEB9AE10E94BFFAB4018CEB9AE10E94FC
:101E5000BFFA6AE070E08CEB9AE10E94490D09CF6D
:101E60008130910539F4F30180819181019691834C
:101E70008083FFCE029709F0FCCECA57DF4FF8816E
:101E8000C658D0402F2F30E0F30180819181281770
:101E9000390761F0CA57DF4FF881C658D040FF5F5D
:101EA000CA57DF4FF883C658D040E3CEC857DF4F3C
:101EB0000FB6F894DEBF0FBECDBFDF91CF911F915B
:101EC0000F91FF90EF90DF90CF90BF90AF909F90D9
:101ED0008F907F906F905F904F903F902F900895DC
:101EE0000F931F93CF93DF93CDB7DEB76F970FB6E6
:101EF000F894DEBF0FBECDBF8C01FC01E055FD4F55
:101F00001182108240E050E0BA01855A9F4F0E9432
:101F100025CEC801895A9F4F2BE1FC013496DE0182
:101F2000159601900D922A95E1F7FC01828193812B
:101F30009C838B838EE39BE09A838983AE014F5F02
:101F40005F4F64E27AE0C8010E94F40DCE01019671
:101F50000E945A0D6F960FB6F894DEBF0FBECDBF2C
:101F6000DF91CF911F910F9108952BE1FB013496E2
:101F7000DC01149601900D922A95E1F7FB01228174
:101F80003381FC01338322830895EF92FF920F93F4
:101F90001F93CF93DF93EC011C82FC01E25AFF4FA9
:101FA0008081882329F0CE01855A9F4F0E940BCF54
:101FB0007E0181E3E81A8EEFF80A45E360E0C7018D
:101FC0000E9463C981113EC0EBE7F4E064918F0188
:101FD000662361F0772767FD70958CEB9AE10E948C
:101FE000490D0F5F1F4FF8016491F2CFEEE6F4E068
:101FF00064918F01662361F0772767FD70958CEB04
:102000009AE10E94490D0F5F1F4FF8016491F2CFD2
:102010006AE070E08CEB9AE10E94490D8E01095A4A
:102020001F4FB801CE0188589F4F0E94B50FCA5864
:10203000DF4F19830883DF91CF911F910F91FF909C
:10204000EF9008958E010C521E4F41E0B701C80178
:102050000E9425D781112CC040E0B701C8010E9421
:1020600025D7811125C0E1E8F4E064918F01662352
:1020700061F0772767FD70958CEB9AE10E94490D1E
:102080000F5F1F4FF8016491F2CFEBE5F4E064912C
:102090008F01662309F4BCCF772767FD70958CEB21
:1020A0009AE10E94490D0F5F1F4FF8016491F1CF33
:1020B000B801CE01855A9F4F0E9410CC811125C0D6
:1020C000E1E8F4E064918F01662361F0772767FD12
:1020D00070958CEB9AE10E94490D0F5F1F4FF8013C
:1020E0006491F2CFEBE4F4E064918F01662309F48C
:1020F0008FCF772767FD70958CEB9AE10E94490D91
:102100000F5F1F4FF8016491F1CF81E08C83EBE703
:10211000F4E064918F01662361F0772767FD709585
:102120008CEB9AE10E94490D0F5F1F4FF8016491FB
:10213000F2CFE0E4F4E064918F01662309F468CF04
:10214000772767FD70958CEB9AE10E94490D0F5F30
:102150001F4FF8016491F1CFFC011282148208959F
:10216000FC018481882319F081E082831382089521
:10217000FC018281882319F0128281E08383089513
:10218000AF92BF92CF92DF92EF92FF920F931F9385
:10219000CF93DF931F92CDB7DEB78C018FE2FB01A7
:1021A00081935F01D12C41E07801F3E3EF1AFEEF58
:1021B000FF0A9FE1C92E2D2D30E0F701808191812A
:1021C00028173907D8F4C29EC001C39E900D112470
:1021D00085569F4FB501800F911F49830E94B5CB53
:1021E000C50149815C010196F5012081222321F07E
:1021F0004D3810F44F5FF6CFD394DDCF47FD11C0BB
:10220000B501C8018A509E4F0F90DF91CF911F9169
:102210000F91FF90EF90DF90CF90BF90AF900C9414
:10222000B5CBF50110820F90DF91CF911F910F91E7
:10223000FF90EF90DF90CF90BF90AF9008953F92C6
:102240004F925F926F927F928F929F92AF92BF92C6
:10225000CF92DF92EF92FF920F931F93CF93DF9372
:10226000CDB7DEB7AC970FB6F894DEBF0FBECDBFCB
:102270008C016B01342EFC018481882309F4EEC2A9
:10228000E750FE4F8081882309F413C12111DAC081
:102290007801FFEEEF1AFDEFFF0AF7018081882336
:1022A00009F435C0E1E8F4E064918F01662361F040
:1022B000772767FD70958CEB9AE10E94490D0F5FBF
:1022C0001F4FF8016491F2CFEDEFF3E064918F01BD
:1022D000662361F0772767FD70958CEB9AE10E9489
:1022E000490D0F5F1F4FF8016491F2CF4AE050E0B3
:1022F00061E070E08CEB9AE10E9491FB6AE070E093
:102300008CEB9AE10E94490D0E941438A7C2EBE7BA
:10231000F4E064915F01662369F0772767FD7095AB
:102320008CEB9AE10E94490DFFEFAF1ABF0AF5014D
:102330006491F1CFE4EEF3E064915F01662369F00C
:10234000772767FD70958CEB9AE10E94490DFFEFAE
:10235000AF1ABF0AF5016491F1CFB6018CEB9AE197
:102360000E94BFFAE9EDF3E064915F01662369F032
:10237000772767FD70958CEB9AE10E94490DFFEF7E
:10238000AF1ABF0AF5016491F1CFF70180812DE802
:10239000B22EB801B89E600D711D11246A5E7D4F8A
:1023A000C8010E94C010F7018081B801B89E600D7D
:1023B000711D11246A5E7D4F8CEB9AE10E94BFFA79
:1023C000E3EDF3E064915F01662369F0772767FD31
:1023D00070958CEB9AE10E94490DFFEFAF1ABF0A8E
:1023E000F5016491F1CF5801F5E5AF1AFDEFBF0A91
:1023F000F50140815181628173812AE030E08CEBEC
:102400009AE10E94B1FB6AE070E08CEB9AE10E94D5
:10241000490DF7012081F80184E0289FE00DF11DAE
:102420001124AF014E5E5D4FF50180819181A28143
:10243000B381FA0180839183A283B3832F5FF70175
:10244000208331C0EBE7F4E064917F01662369F0FB
:10245000772767FD70958CEB9AE10E94490DFFEF9D
:10246000EF1AFF0AF7016491F1CFE2ECF3E0649117
:102470007F01662369F0772767FD70958CEB9AE101
:102480000E94490DFFEFEF1AFF0AF7016491F1CFA7
:10249000B6018CEB9AE10E94BFFA6AE070E08CEB27
:1024A0009AE10E94490DC8018A509E4F0E940BCFAD
:1024B00035C0F801EF5EFD4F1082EBE7F4E0649168
:1024C0007F01662369F0772767FD70958CEB9AE1B1
:1024D0000E94490DFFEFEF1AFF0AF7016491F1CF57
:1024E000E1EBF3E064917F01662369F0772767FDF4
:1024F00070958CEB9AE10E94490DFFEFEF1AFF0AED
:10250000F7016491F1CFB6018CEB9AE10E94BFFA1A
:102510006AE070E08CEB9AE10E94490DF8011282AA
:10252000CE0101965C010E94500D280196E7490EEC
:10253000511CC801895A9F4FF20191838083F60193
:1025400080818F3209F07EC06FE270E0C6010F9487
:10255000B40701967C01E114F10409F479C06FE23B
:1025600070E0C7010F94B4074C01009709F471C0E3
:10257000E816F90608F06DC03C016E187F08A3014B
:10258000B701CE0180960F94DD07E0E2F0E0EC0F9A
:10259000FD1FE60DF71D1082BE01605E7F4F8CEBC4
:1025A0009AE10E94BFFA6AE070E08CEB9AE10E9427
:1025B000490DF201608171816115710519F06C5F3F
:1025C0007F4F02C060E070E021E0AE01405E5F4FEF
:1025D000CE0105960E9414D181112CC0EDE9F3E0E3
:1025E00064918F01662361F0772767FD70958CEB0E
:1025F0009AE10E94490D0F5F1F4FF8016491F2CFDD
:10260000BE01605E7F4F8CEB9AE10E94BFFAEBE95E
:10261000F3E064918F01662309F417C1772767FD02
:1026200070958CEB9AE10E94490D0F5F1F4FF801E6
:102630006491F1CFF201B182A0827401FFEFEF1A31
:10264000FF0A89CFC80188589F4FF2019183808388
:102650007601C8018A509E4F4C01F2016081718160
:10266000332009F4A0C06115710519F06C5F7F4F2C
:1026700002C060E070E021E0A701C4010E9414D113
:10268000882309F466C0F40181899289A389B489F9
:10269000F801ED55FD4F80839183A283B383EDE86C
:1026A000F3E064914F01C8018D559D4F6C01662385
:1026B00069F0772767FD70958CEB9AE10E94490DD0
:1026C0009FEF891A990AF4016491F1CFB7018CEB5D
:1026D0009AE10E94BFFAE5E8F3E064917F01662386
:1026E00069F0772767FD70958CEB9AE10E94490DA0
:1026F000FFEFEF1AFF0AF7016491F1CFF601408175
:102700005181628173812AE030E08CEB9AE10E9472
:10271000B1FB6AE070E08CEB9AE10E94490DF80190
:10272000E555FD4F1082118212821382E7E7F3E034
:1027300064918F01662309F488C0772767FD70953F
:102740008CEB9AE10E94490D0F5F1F4FF8016491D5
:10275000F1CFE3E6F3E064918F01662361F0772720
:1027600067FD70958CEB9AE10E94490D0F5F1F4F3A
:10277000F8016491F2CFB7018CEB9AE10E94BFFAA5
:10278000E1E6F3E064918F01662309F45EC07727E8
:1027900067FD70958CEB9AE10E94490D0F5F1F4F0A
:1027A000F8016491F1CF6115710519F06C5F7F4FED
:1027B00002C060E070E026E5A701C4010E9414D1C8
:1027C000811129C0EDE4F3E064918F01662361F08B
:1027D000772767FD70958CEB9AE10E94490D0F5F9A
:1027E0001F4FF8016491F2CFB7018CEB9AE10E9480
:1027F000BFFAEBE4F3E064918F01662331F17727B0
:1028000067FD70958CEB9AE10E94490D0F5F1F4F99
:10281000F8016491F2CF81E0F8018083E9E3F3E00D
:1028200064918F01662361F0772767FD70958CEBCB
:102830009AE10E94490D0F5F1F4FF8016491F2CF9A
:10284000B6018CEB9AE10E94BFFA6AE070E08CEB73
:102850009AE10E94490DC5010E945A0DAC960FB62F
:10286000F894DEBF0FBECDBFDF91CF911F910F91C6
:10287000FF90EF90DF90CF90BF90AF909F908F90A0
:102880007F906F905F904F903F90089521E0FC0102
:10289000218340E00C941F114F925F926F927F92C0
:1028A0008F929F92AF92BF92CF92DF92EF92FF9260
:1028B0000F931F93CF93DF93CDB7DEB7AC970FB6CF
:1028C000F894DEBF0FBECDBF7C015B01FC018481AB
:1028D000882309F403C1C7018A509E4F0E940BCF81
:1028E000F7011282CE0101966C010E94500D270162
:1028F00096E7490E511CC701895A9F4FF2019183F7
:102900008083F50180818F3209F07AC06FE270E038
:10291000C5010F94B4078C010F5F1F4F09F476C0F7
:102920006FE270E0C8010F94B4074C01009709F4FE
:102930006EC00817190708F06AC03C01601A710AD6
:10294000A301B801CE0180960F94DD07E0E2F0E02C
:10295000EC0FFD1FE60DF71D1082BE01605E7F4F7C
:102960008CEB9AE10E94BFFA6AE070E08CEB9AE18E
:102970000E94490DF201608171816115710519F0A4
:102980006C5F7F4F02C060E070E021E0AE01405E0E
:102990005F4FCE0105960E9414D181112CC0E5E253
:1029A000F3E064918F01662361F0772767FD7095EE
:1029B0008CEB9AE10E94490D0F5F1F4FF801649163
:1029C000F2CFBE01605E7F4F8CEB9AE10E94BFFAAE
:1029D000E3E2F3E064918F01662309F476C0772780
:1029E00067FD70958CEB9AE10E94490D0F5F1F4FB8
:1029F000F8016491F1CFF201D182C08284018CCFC1
:102A0000C70188589F4FF201918380838501F201AD
:102A100080819181009711F0049602C080E090E0DF
:102A2000B8010E94F4D1882331F1E5E1F3E064912B
:102A30005F01662369F0772767FD70958CEB9AE15B
:102A40000E94490DFFEFAF1ABF0AF5016491F1CF63
:102A5000B8018CEB9AE10E94BFFA6AE070E08CEB5F
:102A60009AE10E94490DF701E555FD4F1082118250
:102A70001282138230C0EDEFF2E064917F01662391
:102A800069F0772767FD70958CEB9AE10E94490DFC
:102A9000FFEFEF1AFF0AF7016491F1CFB8018CEB59
:102AA0009AE10E94BFFAEBEFF2E064918F01662396
:102AB00061F0772767FD70958CEB9AE10E94490DD4
:102AC0000F5F1F4FF8016491F2CF6AE070E08CEB6A
:102AD0009AE10E94490DC6010E945A0DAC960FB6AC
:102AE000F894DEBF0FBECDBFDF91CF911F910F9144
:102AF000FF90EF90DF90CF90BF90AF909F908F901E
:102B00007F906F905F904F9008950F931F93CF9396
:102B1000DF93EC018C81882309F43EC0E9EEF2E0FA
:102B200064918F01662361F0772767FD70958CEBC8
:102B30009AE10E94490D0F5F1F4FF8016491F2CF97
:102B4000FE01E555FD4F40815181628173812AE08C
:102B500030E08CEB9AE10E94B1FBE7EEF2E0649189
:102B60008F01662361F0772767FD70958CEB9AE102
:102B70000E94490D0F5F1F4FF8016491F2CFCD55B0
:102B8000DD4F488159816A817B812AE030E08CEBFE
:102B90009AE10E94B1FB11C0E7EDF2E06491EF0110
:102BA000662359F0772767FD70958CEB9AE10E94B8
:102BB000490D2196FE016491F3CF6AE070E08CEB41
:102BC0009AE1DF91CF911F910F910C94490DAF9233
:102BD000BF92CF92DF92EF92FF920F931F93CF930A
:102BE000DF935C01EB01FB0101900020E9F78F010D
:102BF00001501109061B170B6C01FAE0CF1AFEEF0A
:102C0000DF0AF60110826EE470E0CE010F94B40783
:102C10007C01009729F4F8013197EC0FFD1F0DC0DE
:102C200060E270E00F94B407EC0121966AE270E074
:102C3000C7010F94B407FC0131978DE081838AE0CE
:102C400082831382BE01C5018E509E4F0E94C3D362
:102C5000F6018081882391F1E1E8F4E06491EF01CD
:102C6000662359F0772767FD70958CEB9AE10E94F7
:102C7000490D2196FE016491F3CFE1ECF2E06491FD
:102C8000EF01662359F0772767FD70958CEB9AE189
:102C90000E94490D2196FE016491F3CF6AE070E035
:102CA0008CEB9AE1DF91CF911F910F91FF90EF9004
:102CB000DF90CF90BF90AF900C94490DDF91CF91F2
:102CC0001F910F91FF90EF90DF90CF90BF90AF904A
:102CD00008952F923F924F925F926F927F928F92C0
:102CE0009F92AF92BF92CF92DF92EF92FF920F939B
:102CF0001F93CF93DF93CDB7DEB7CC55D1090FB675
:102D0000F894DEBF0FBECDBF4C018C0101551D4FA5
:102D1000662339F0F8011082F401848181111EC00C
:102D200015C0F8018081882309F4B0C0F401E95589
:102D3000FD4FC080D180E280F3800E9438F5C61636
:102D4000D706E806F90608F4A1C0E4CFC4010E9442
:102D5000C50FF4018481882309F498C07401F5E556
:102D6000EF0EF11CF70181818F9380818F9388EBA7
:102D700092E09F938F938E01015C1F4F1F930F93DF
:102D80000F941B080F900F900F900F900F900F90C3
:102D9000B12CF80101900020E9F73197E01BF10B0D
:102DA000BE1684F46801CB0CD11CB7FCDA94F60192
:102DB0008081992787FD90950F945207F6018083B3
:102DC000B394E7CFFBE58F0E911C40E050E0BA01D1
:102DD000C4010E9425CE512CCE0101966C0131EB2D
:102DE000632E32E0732E5E0191E2A90EB11C40E029
:102DF00050E0B601C4010E9470CD1816DCF5412CDC
:102E0000F60101900020E9F73197EC19FD094E1603
:102E100074F41601240C311C47FC3A94F1018081B2
:102E200090E00F945207F10180834394E9CF8A85A3
:102E30008E37E9F245E050E0B801C6010F94CF07A4
:102E4000892BA9F61F930F937F926F92BF92AF9237
:102E50000F941B08C5010E94F3268DEA92E00E94A0
:102E60006F270F900F900F900F900F900F90552499
:102E70005394BDCF511004C08FEF9FEFF70104C0F2
:102E8000F70180819181019691838083C45ADF4F3D
:102E90000FB6F894DEBF0FBECDBFDF91CF911F916B
:102EA0000F91FF90EF90DF90CF90BF90AF909F90E9
:102EB0008F907F906F905F904F903F902F900895EC
:102EC0000F931F93CF93DF93EC018C010A501E4F99
:102ED000C8010E94BFCEC8010E940BCF1882198280
:102EE000DF91CF911F910F910895EF92FF920F9371
:102EF0001F93CF93DF93CDB7DEB76F970FB6F894DC
:102F0000DEBF0FBECDBF8C017C0186E7E80EF11C51
:102F1000C80188589F4FF70191838083E65CFD4F7D
:102F200022E030E031832083329670E07183608349
:102F300040E050E0BA0104960E9425CEF70180815E
:102F400091812BE1FC013496DE01159601900D92E2
:102F50002A95E1F7FC01828193819C838B838EE328
:102F60009BE09A838983AE014F5F5F4F64E27AE012
:102F7000C8010E94F40DCE0101960E945A0D6F9671
:102F80000FB6F894DEBF0FBECDBFDF91CF911F917A
:102F90000F91FF90EF900895CF92DF92EF92FF9202
:102FA0000F931F93CF93DF93CDB7DEB76F970FB615
:102FB000F894DEBF0FBECDBF8C016C0126E7C20EB8
:102FC000D11C88589F4FF60191838083E65CFD4FAA
:102FD00021E030E0318320837801FEE4EF1AFDEF39
:102FE000FF0AF7011182108240E050E0BA01049616
:102FF0000E9425CEF601808191812BE1FC0134965F
:10300000DE01159601900D922A95E1F7FC0182816F
:1030100093819C838B838EE39BE09A838983AE01AB
:103020004F5F5F4F64E27AE0C8010E94F40DCE0169
:1030300001960E945A0DF701808191816F960FB61B
:10304000F894DEBF0FBECDBFDF91CF911F910F91DE
:10305000FF90EF90DF90CF900895EF92FF920F9343
:103060001F93CF93DF93EC010E94A5E08E010F5ECA
:103070001D4FF80180819E012A503E4F790188231F
:10308000A9F1C9010E940BCFF80180818150808392
:10309000BE01FDE88F9F600D711D11246A5E7D4F9A
:1030A00021E041E0CE010E941F11F8018081FE0164
:1030B00024E0829FE00DF11D1124EE5EFD4F408162
:1030C000518162817381FE01E555FD4F408351833B
:1030D00062837383C7010E9425CECE01DF91CF9119
:1030E0001F910F91FF90EF900C94B0100E9438E167
:1030F000C7010E940BCF1A8221E030E045E050E08A
:103100006AE070E08BE191E10E94F2218AEA92E0AC
:103110000E946F278EE992E00E946F2780917D16B2
:103120008823F9F010927D16C091000ED0E0CC0FEC
:10313000DD1FC051D64E68817981882777FD809543
:10314000982F0E94F3FE2091650230916602409113
:103150006702509168020F945400181614F41982F3
:103160001882DF91CF911F910F91FF90EF900895FA
:10317000EF92FF920F931F93CF93DF931F92CDB7E0
:10318000DEB78C017B01460FF70161917F01F801E9
:103190008081918149830F944D0AF801808191814A
:1031A00001969183808349814E11EECF0F90DF917C
:1031B000CF911F910F91FF90EF900895EF92FF92A2
:1031C0000F931F93CF93DF931F92CDB7DEB78C0180
:1031D0007B01460FF8018081918149830F94450A54
:1031E000F70181937F01F80180819181019691839C
:1031F000808349814E11EECF0F90DF91CF911F91C7
:103200000F91FF90EF9008950F931F93CF93DF934B
:10321000CDB7DEB768970FB6F894DEBF0FBECDBF4F
:1032200080E390E3A0E3B0E08D839E83AF83B88713
:1032300004E610E0188F0F8B44E0BE016B5F7F4FF8
:10324000CE0147960E94B81840E16EED76E1CE01BE
:1032500047960E94B81840E16EEE76E1CE0147969F
:103260000E94B81840E16EEC76E1CE0147960E94CC
:10327000B81844E066EC76E1CE0147960E94B81893
:1032800044E062EC76E1CE0147960E94B81844E033
:103290006AEC76E1CE0147960E94B81844E062EBF2
:1032A00076E1CE0147960E94B81844E06EEF76E1D1
:1032B000CE0147960E94B81844E06EEB76E1CE014D
:1032C00047960E94B81844E06AEB76E1CE01479633
:1032D0000E94B81844E066EB76E1CE0147960E9462
:1032E000B8184CE064E17EE0CE0147960E94B81821
:1032F00087ED90E09E8B8D8B8DE290E09C8B8B8B8D
:103300001A8A198A80EF90E0988B8F8786E490E084
:103310009E878D871C861B8642E0BE016B5E7F4FB9
:10332000CE0147960E94B81842E0BE016D5E7F4F05
:10333000CE0147960E94B81842E0BE016F5E7F4FF3
:10334000CE0147960E94B81842E0BE01615F7F4FF0
:10335000CE0147960E94B81842E0BE01635F7F4FDE
:10336000CE0147960E94B81842E0BE01655F7F4FCC
:10337000CE0147960E94B81844E061E07EE0CE019D
:1033800047960E94B81844E06EE172E0CE0147967D
:103390000E94B81844E066E272E0CE0147960E94AF
:1033A000B81844E06EE272E0CE0147960E94B81869
:1033B00044E068EB72E0CE0147960E94B81844E002
:1033C00064EB72E0CE0147960E94B81844E060EBCF
:1033D00072E0CE0147960E94B81880E290E09A878A
:1033E000898742E0BE01675F7F4FCE0147960E940A
:1033F000B81886E591E3A0E3B0E089839A83AB83B4
:10340000BC83188F0F8B44E0BE016F5F7F4FCE01EE
:1034100047960E94B818ECE9F6E064918F016623A4
:1034200061F0772767FD70958CEB9AE10E94490D5A
:103430000F5F1F4FF8016491F2CFECE8F6E0649162
:103440008F01662361F0772767FD70958CEB9AE119
:103450000E94490D0F5F1F4FF8016491F2CF6AE09F
:1034600070E08CEB9AE10E94490D68960FB6F894D3
:10347000DEBF0FBECDBFDF91CF911F910F91089599
:103480000F931F93CF93DF93CCE9D6E0FE016491B5
:103490008E01662361F0772767FD70958CEB9AE1CA
:1034A0000E94490D0F5F1F4FF8016491F2CFECE7C6
:1034B000F6E064918F01662361F0772767FD7095D0
:1034C0008CEB9AE10E94490D0F5F1F4FF801649148
:1034D000F2CF6AE070E08CEB9AE10E94490DFE01A8
:1034E00064910CE916E0662361F0772767FD70951B
:1034F0008CEB9AE10E94490D0F5F1F4FF801649118
:10350000F2CF4091DE165091DF166091E016709177
:10351000E11684E796E00E9487264091E2165091DA
:10352000E3166091E4167091E51681E796E00E943B
:1035300087264091E6165091E7166091E816709143
:10354000E9168EE696E00E9487264091EA16509191
:10355000EB166091EC167091ED168BE696E00E94EA
:10356000872664E27AE08CEB9AE10E94BFFA6AE077
:1035700070E08CEB9AE10E94490DFE0164910CE928
:1035800016E0662361F0772767FD70958CEB9AE172
:103590000E94490D0F5F1F4FF8016491F2CFE1E5E2
:1035A000F6E064918F01662361F0772767FD7095DF
:1035B0008CEB9AE10E94490D0F5F1F4FF801649157
:1035C000F2CF6AE070E08CEB9AE10E94490DFE01B7
:1035D00064910CE916E0662361F0772767FD70952A
:1035E0008CEB9AE10E94490D0F5F1F4FF801649127
:1035F000F2CF4091EE165091EF166091F016709157
:10360000F11688E496E00E9487264091F2165091C8
:10361000F3166091F4167091F51685E496E00E9419
:1036200087264091F6165091F7166091F816709122
:10363000F91682E496E00E9487264091FA1650918E
:10364000FB166091FC167091FD168FE396E00E94C8
:10365000872664E27AE08CEB9AE10E94BFFA6AE086
:1036600070E08CEB9AE10E94490DFE0164910CE937
:1036700016E0662361F0772767FD70958CEB9AE181
:103680000E94490D0F5F1F4FF8016491F2CFE1E2F4
:10369000F6E064918F01662361F0772767FD7095EE
:1036A0008CEB9AE10E94490D0F5F1F4FF801649166
:1036B000F2CF6AE070E08CEB9AE10E94490DFE01C6
:1036C00064910CE916E0662361F0772767FD709539
:1036D0008CEB9AE10E94490D0F5F1F4FF801649136
:1036E000F2CF4091CE165091CF166091D0167091C6
:1036F000D11688E196E00E94CF264091D2165091D3
:10370000D3166091D4167091D51685E196E00E948B
:10371000CF264091D6165091D7166091D816709149
:10372000D91682E196E00E94CF264091DA16509198
:10373000DB166091DC167091DD168FE096E00E943A
:10374000CF2664E27AE08CEB9AE10E94BFFA6AE04D
:1037500070E08CEB9AE10E94490DFE0164910CE946
:1037600016E0662361F0772767FD70958CEB9AE190
:103770000E94490D0F5F1F4FF8016491F2CFEAEDEF
:10378000F5E064918F01662361F0772767FD7095FE
:103790008CEB9AE10E94490D0F5F1F4FF801649175
:1037A000F2CF6AE070E08CEB9AE10E94490DFE01D5
:1037B00064910CE916E0662361F0772767FD709548
:1037C0008CEB9AE10E94490D0F5F1F4FF801649145
:1037D000F2CF4091C6165091C7166091C8167091ED
:1037E000C91681ED95E00E9487264091C21650913E
:1037F000C3166091C4167091C5168EEC95E00E94B8
:10380000872664E27AE08CEB9AE10E94BFFA6AE0D4
:1038100070E08CEB9AE10E94490DFE0164910CE985
:1038200016E0662361F0772767FD70958CEB9AE1CF
:103830000E94490D0F5F1F4FF8016491F2CFEBE139
:10384000F5E064918F01662361F0772767FD70953D
:103850008CEB9AE10E94490D0F5F1F4FF8016491B4
:10386000F2CF6AE070E08CEB9AE10E94490DFE0114
:1038700064910CE916E0662361F0772767FD709587
:103880008CEB9AE10E94490D0F5F1F4FF801649184
:10389000F2CF4091CA165091CB166091CC16709120
:1038A000CD1682E195E00E9487264091B216509194
:1038B000B3166091B4167091B5168FE095E00E9432
:1038C00087264091FE165091FF1660910017709167
:1038D00001178CE095E00E94CF264091BE165091D2
:1038E000BF166091C0167091C11689E095E00E94E4
:1038F00087264091BA165091BB166091BC16709104
:10390000BD1686E095E00E9487264091B61650913C
:10391000B7166091B8167091B91683E095E00E94D1
:10392000872664E27AE08CEB9AE10E94BFFA6AE0B3
:1039300070E08CEB9AE10E94490DFE0164910CE964
:1039400016E0662361F0772767FD70958CEB9AE1AE
:103950000E94490D0F5F1F4FF8016491F2CFE1EF14
:10396000F4E064918F01662361F0772767FD70951D
:103970008CEB9AE10E94490D0F5F1F4FF801649193
:10398000F2CF6AE070E08CEB9AE10E94490DFE01F3
:1039900064910CE916E0662361F0772767FD709566
:1039A0008CEB9AE10E94490D0F5F1F4FF801649163
:1039B000F2CF4091140E5091150E6091160E709139
:1039C000170E88EE94E00E9487264091180E5091C1
:1039D000190E60911A0E70911B0E85EE94E00E94F4
:1039E000872640911C0E50911D0E60911E0E709105
:1039F0001F0E82EE94E00E94872664E27AE08CEB50
:103A00009AE10E94BFFA6AE070E08CEB9AE10E94B2
:103A1000490DFE0164910CE916E0662361F07727F9
:103A200067FD70958CEB9AE10E94490D0F5F1F4F67
:103A3000F8016491F2CFE4EDF4E064918F01662324
:103A400061F0772767FD70958CEB9AE10E94490D34
:103A50000F5F1F4FF8016491F2CF6AE070E08CEBCA
:103A60009AE10E94490DFE01C4910CE916E0CC23B5
:103A700069F06C2F772767FD70958CEB9AE10E94B7
:103A8000490D0F5F1F4FF801C491F1CF4091B8026B
:103A90005091B9026091BA027091BB028AEC94E035
:103AA0000E9487266091B4027091B5028091B6029F
:103AB0009091B7020E94A4EDAB01BC0187EC94E0A9
:103AC0000E9487266091B0027091B1028091B2028B
:103AD0009091B3020E94B2EDAB01BC0184EC94E082
:103AE0000E94872664E27AE08CEB9AE10E94BFFA9A
:103AF0006AE070E08CEB9AE1DF91CF911F910F911A
:103B00000C94490DAF92BF92CF92DF92EF92FF9249
:103B10000F931F93CF93DF93CDB7DEB7E0970FB628
:103B2000F894DEBF0FBECDBF80E1ECEBF2E0DE012A
:103B3000919601900D928A95E1F780E1ECECF2E02C
:103B4000DE01519601900D928A95E1F780E1ECED4E
:103B5000F2E0DE01119601900D928A95E1F76E0177
:103B600081E2C80ED11C8EEDE82E86E1F82E8E0182
:103B70000F5E1F4F6EEE76E1AE014F5F5F4F9EEC22
:103B8000A92E96E1B92E20E030E0F60181919191C5
:103B9000A191B1916F01F70181939193A193B19399
:103BA0007F01F80181919191A191B1918F01FB0168
:103BB00081939193A193B193BF01FA018191919166
:103BC000A191B191AF01F50181939193A193B1932B
:103BD0005F012F5F3F4F24303105B9F60E9421C8A5
:103BE00080E090E8ABEBB4E48093C6169093C716E0
:103BF000A093C816B093C91680E090E0AAEFB4E491
:103C00008093C2169093C316A093C416B093C516A2
:103C10001092CA161092CB161092CC161092CD1696
:103C200080E29EE4A0E0B0E08093FE169093FF1641
:103C3000A0930017B09301171092B2161092B3160A
:103C40001092B4161092B51680E090E0A0EAB0E4AD
:103C50008093BE169093BF16A093C016B093C11662
:103C60004DEC5CEC6CEC7EE34093BA165093BB16C3
:103C70006093BC167093BD168093B6169093B716DA
:103C8000A093B816B093B91610921C0E10921D0E88
:103C900010921E0E10921F0E1092180E1092190EF6
:103CA00010921A0E10921B0E1092140E1092150EF6
:103CB0001092160E1092170E8AE999E9A9E3B0EC5A
:103CC0008093010E9093020EA093030EB093040E06
:103CD00083E393EFA7E9B3E480931E0290931F025E
:103CE000A0932002B09321028AE999E9A9E1BEEBF1
:103CF0008093260290932702A0932802B093290272
:103D00008DEC9CECACECBDEB80932E0290932F02DB
:103D1000A0933002B09331028FE195E8AFE9B1E4AE
:103D20008093B8029093B902A093BA02B093BB02F9
:103D300060E070E080E590E40E949DED6093B40245
:103D40007093B5028093B6029093B7026DE37AE068
:103D500085EF91E40E94ABED6093B0027093B102E5
:103D60008093B2029093B3020E9421E380E090E03E
:103D7000A0E8BFE38093AC029093AD02A093AE02A3
:103D8000B093AF02ECE9F6E064918F01662361F035
:103D9000772767FD70958CEB9AE10E94490D0F5FC4
:103DA0001F4FF8016491F2CFE8E8F4E064918F01CD
:103DB000662361F0772767FD70958CEB9AE10E948E
:103DC000490D0F5F1F4FF8016491F2CF6AE070E078
:103DD0008CEB9AE1E0960FB6F894DEBF0FBECDBF34
:103DE000DF91CF911F910F91FF90EF90DF90CF90D7
:103DF000BF90AF900C94490D0F931F93CF93DF9317
:103E0000CDB7DEB768970FB6F894DEBF0FBECDBF53
:103E100084E690E0988F8F8B86E591E3A0E3B0E095
:103E200089839A83AB83BC8344E0BE016B5F7F4F81
:103E3000CE0147960E94DE1843E050E0BE016B5F62
:103E40007F4FCE0101960F94CF07892B09F0ECC06C
:103E500040E16EED76E1CE0147960E94DE1840E12A
:103E60006EEE76E1CE0147960E94DE1840E16EECE0
:103E700076E1CE0147960E94DE180E9421C844E0F8
:103E800066EC76E1CE0147960E94DE1844E062ECD3
:103E900076E1CE0147960E94DE1844E06AEC76E1B6
:103EA000CE0147960E94DE1844E062EB76E1CE0137
:103EB00047960E94DE1844E06EEF76E1CE01479609
:103EC0000E94DE1844E06EEB76E1CE0147960E9438
:103ED000DE1844E06AEB76E1CE0147960E94DE18D8
:103EE00044E066EB76E1CE0147960E94DE184CE096
:103EF00064E17EE0CE0147960E94DE1842E0BE01FA
:103F00006B5E7F4FCE0147960E94DE1842E0BE01F5
:103F10006D5E7F4FCE0147960E94DE1842E0BE01E3
:103F20006F5E7F4FCE0147960E94DE1842E0BE01D1
:103F3000615F7F4FCE0147960E94DE1842E0BE01CE
:103F4000635F7F4FCE0147960E94DE1842E0BE01BC
:103F5000655F7F4FCE0147960E94DE1844E061E026
:103F60007EE0CE0147960E94DE1844E06EE172E0EA
:103F7000CE0147960E94DE1844E066E272E0CE0170
:103F800047960E94DE1844E06EE272E0CE0147964A
:103F90000E94DE1844E068EB72E0CE0147960E9472
:103FA000DE1844E064EB72E0CE0147960E94DE1812
:103FB00044E060EB72E0CE0147960E94DE1842E0DA
:103FC000BE01675F7F4FCE0147960E94DE180E94B8
:103FD00021E3ECE9F6E064918F01662361F0772735
:103FE00067FD70958CEB9AE10E94490D0F5F1F4FA2
:103FF000F8016491F2CFEAEAF4E064918F0166235C
:1040000061F0772767FD70958CEB9AE10E94490D6E
:104010000F5F1F4FF8016491F2CF6AE070E08CEB04
:104020009AE10E94490D02C00E94821D68960FB657
:10403000F894DEBF0FBECDBFDF91CF911F910F91DE
:104040000895FC01EB58FF4F118210823D979C01AF
:104050002D593F4F31832083329628EE33E0318350
:10406000208332961182108232961182108232960B
:1040700010823196118210820895FB01838190E0B5
:10408000982F88272481820F911D0895FC01E859FB
:10409000FF4FA081B1818D599F4F8A179B0780F4F4
:1040A0008FEF8C93808191810197918380838091A0
:1040B000CD0B9091CE0B01979093CE0B8093CD0BAF
:1040C00008950F931F93CF93DF938C01EC01CD588C
:1040D000DF4F88819981DC01ED91FC910480F581AD
:1040E000E02D1995892B41F4F801E259FF4F8DEF2E
:1040F0009FEF918380830AC088819981DC01ED91D3
:10410000FC910680F781E02D19959927DF91CF91D9
:104110001F910F910895FC01E259FF4F1182108207
:104120000E9461200895CF93DF93EC01CE59DF4FB9
:1041300028812223D1F09C01205A3F4FF901508160
:1041400046E0FC01459FE00DF11D1124DB010190CB
:104150000D924A95E1F7F90180818F5F8F7080831E
:1041600088818150888381E001C080E0DF91CF9118
:104170000895CF93DF93EC01CE59DF4F28812E3085
:10418000D0F49C012F593F4FF901508146E0DC01EA
:10419000459FA00DB11D1124FB0101900D924A9580
:1041A000E1F7F90180818F5F8F70808388818F5F55
:1041B000888381E008C0FC01E259FF4F2BEF3FEFFD
:1041C0003183208380E0DF91CF910895FC01E8598D
:1041D000FF4F0190F081E02D6083635071096230E0
:1041E000710520F4FC01E059FF4F108208952091E1
:1041F000CD0B3091CE0B2F5F3F4F3093CE0B2093E2
:10420000CD0BFC01E859FF4F208131812F5F3F4FDB
:104210003183208370E00C94E620CF92DF92EF92FE
:10422000FF921F93CF93DF93EC010E948B20182FF6
:104230006E018EE6C80ED11CD6012D913C912D3F0A
:104240003F4F81F4FE01EE59FF4F8081882309F42E
:104250005EC0C958DF4FE881F981309709F457C033
:10426000199555C07E01E8E6EE0EF11CD701ED91DF
:10427000FC918081813021F0B0F0823091F01EC03D
:10428000173099F0153121F0163009F04AC03BC0C3
:10429000CE010E9446208CEF9FEFF6019183808330
:1042A00040C0153021F01730E1F564E004C0CE01C4
:1042B0000E94462063E0CE010E94F720D701ED91D5
:1042C000FC9180818350823008F030C07E01F0E79D
:1042D000EF0EF11CD7012C91222331F18091CC0BF0
:1042E00081278093CC0BE22FF0E0EA53F44F108348
:1042F0002530A1F481110DC066EC7BE0CE010E9457
:10430000B920F7011082CE010E9446200AC080E049
:1043100009C088EF9FEFD6018D939C932F5FF70123
:10432000208381E090E002C0812FDBCFDF91CF912D
:104330001F91FF90EF90DF90CF900895AF92BF92C2
:10434000CF92DF92EF92FF920F931F93CF93DF9361
:10435000EC010E9438F56B017C018E0106591F4F5C
:10436000D8018D919C91AA2797FDA095BA2FC80ED0
:10437000D91EEA1EFB1E5E01B8E6AB0EB11C0E9400
:1043800038F56C157D058E059F05D8F4CE010E9489
:104390000D21019779F40E9438F56B017C01F80139
:1043A00080819181AA2797FDA095BA2FC80ED91EAA
:1043B000EA1EFB1ED501ED91FC9180818111DFCFBA
:1043C00006C0C259DF4F8FEF9FEF99838883DF913B
:1043D000CF911F910F91FF90EF90DF90CF90BF9002
:1043E000AF900895BF92CF92DF92EF92FF920F931A
:1043F0001F93CF93DF938C01D62EC42E79010E9498
:104400009E21F801E259FF4F11821082E801CD5838
:10441000DF4F88819981DC01ED91FC910190F08161
:10442000E02D61E0199588819981DC01ED91FC9185
:104430000190F081E02D6D2D199588819981DC0125
:10444000ED91FC910190F081E02D6C2D1995BB242C
:10445000B394BC24BD2488819981DC01ED91FC9149
:104460000190F081E02D6F2D1995BF2488819981ED
:10447000FF24DC01ED91FC910190F081E02D6E2D87
:10448000199588819981DC01ED91FC916B2D6E2548
:104490000190F081E02D199561E0C8010E94F7209C
:1044A000DF91CF911F910F91FF90EF90DF90CF9010
:1044B000BF900895AF92BF92CF92DF92EF92FF929A
:1044C0000F931F93CF93DF935C016B017A01EA0195
:1044D00009900020E9F72197C41BD50BCF3FD105E8
:1044E00011F00CF04AC00E949E2185010D581F4F0B
:1044F000D8018D919C91DC01ED91FC910190F081AE
:10450000E02D62E01995F80180819181DC01ED9147
:10451000FC910190F081E02D6C2D1995B2E0CB2635
:10452000F80180819181DC01ED91FC910190F08195
:10453000E02D6C2F1995CC26DD26D7016C91F80162
:1045400080819181DC01ED91FC910190F081E02D61
:10455000662351F01995F70181917F01992787FD15
:104560009095C826D926E9CF6C2D199561E0C50133
:104570000E94F72080E090E002C08FEF9FEFDF9174
:10458000CF911F910F91FF90EF90DF90CF90BF9050
:10459000AF90089589589F4FFC01718360830895FF
:1045A000CF93DF93EC01FC01ED58FF4F71836083E3
:1045B00060E00E94F720FE01E05AFF4F1082319622
:1045C0001082CE59DF4F1882DF91CF9108950F935B
:1045D0001F93CF93DF938C01CEEDD6E1F80161916B
:1045E0007191819191918F012991399149915991BD
:1045F0000F9426010E94C0FEF801648775878687A4
:104600009787F6E1CE3EDF0749F7DF91CF911F9103
:104610000F9108952F923F924F925F926F927F92E7
:104620008F929F92AF92BF92CF92DF92EF92FF92C2
:104630000F931F93CF93DF93CDB7DEB73C01CB0130
:10464000BA0118012901F301608371838283938386
:104650000483158326833783C086D186E286F3865A
:1046600084869586A686B78611E020E030E0A90111
:104670000E9451FE811101C010E020E030E0A9014C
:10468000C201B1010E9451FE882311F092E001C0E5
:1046900090E0192B20E030E0A901C701B6010E948B
:1046A00051FE882311F094E001C090E0192B20E026
:1046B00030E0A901C501B4010E9451FE882311F028
:1046C00088E001C080E0182BF30111A3C301DF9142
:1046D000CF911F910F91FF90EF90DF90CF90BF90FF
:1046E000AF909F908F907F906F905F904F903F9092
:1046F0002F900C94E7228F929F92AF92BF92CF920D
:10470000DF92EF92FF920F931F93CF93DF93CDB77A
:10471000DEB7FC0110A20E940A23DF91CF911F9106
:104720000F91FF90EF90DF90CF90BF90AF909F9050
:104730008F9008958F929F92AF92BF92CF92DF9207
:10474000EF92FF920F931F93812C912C54017501CE
:1047500064010AE919E929E13EE3B501A4018FECFE
:104760009BE00E947B231F910F91FF90EF90DF90C1
:10477000CF90BF90AF909F908F900895FC0165916E
:1047800075918591949108954F925F926F927F9267
:104790008F929F92AF92BF92CF92DF92EF92FF9251
:1047A0000F931F93409015025090160260901702CD
:1047B00070901802812C912CEAEFAE2EE5E4BE2E0B
:1047C0008092150290921602A0921702B0921802DF
:1047D0006093300E7093310E8093320E9093330EAF
:1047E0002093340E3093350E4093360E5093370E8F
:1047F000E092380EF092390E00933A0E10933B0E71
:10480000E0E0FEE0FF93EF93F5E58F2E982CF5E0C6
:10481000AF2EF3E4BF2EACE3CA2EAEE0DA2E0E9438
:10482000BABC0E94A5E04092150250921602609216
:104830001702709218020F900F901F910F91FF9026
:10484000EF90DF90CF90BF90AF909F908F907F9030
:104850006F905F904F90089580911502909116028D
:10486000A0911702B09118028093D40D9093D50DAA
:10487000A093D60DB093D70D80914C0290914D022C
:104880009093410E8093400E84E690E090934D0209
:1048900080934C020E9438F56093330C7093340C73
:1048A0008093350C9093360C81E00C9408D980E00D
:1048B0000E9408D98091D40D9091D50DA091D60D6C
:1048C000B091D70D8093150290931602A093170212
:1048D000B09318028091400E9091410E90934D023A
:1048E00080934C020E9438F56093330C7093340C23
:1048F0008093350C9093360C08952F923F924F92EF
:104900005F926F927F928F929F92AF92BF92CF925F
:10491000DF92EF92FF920F931F93CF93DF938DE679
:1049200092E00E940AF1E6E5F2E060817181828105
:1049300093816093150270931602809317029093EF
:10494000180220E030E040E752E40E9458FE4B019C
:104950005C01C4E3DEE0288139814A815B81E0E3C8
:10496000FEE06081718182819381B0E02B2EBEE0F8
:104970003B2E3F922F921CE3C12E1EE0D12EE12C44
:10498000F12C00E211EC0E94BABC0E94A5E082E08A
:104990000E940EE14B015C01288139814A815B81D3
:1049A000E0E3FEE060817181828193818501740181
:1049B0000E941AC784E49EE00E94BE239B01AC01C2
:1049C000C501B4010E9478FD2B013C0120E030E0DC
:1049D00040E752E46091150270911602809117022F
:1049E000909118020E9458FE4B015C012881398188
:1049F0004A815B81E0E3FEE0608171818281938185
:104A00003F922F92830172010E94BABC0E94A5E0DE
:104A100020E030E040E85EE3E6E5F2E060817181AD
:104A2000828193810F9426014B015C0160931502F2
:104A300070931602809317029093180284E49EE00C
:104A40000E94BE236B017C0120E030E040E752E48D
:104A5000C501B4010E9458FE4B015C01A7019601FB
:104A6000C701B6010E9478FD9B01AC01C301B201F0
:104A70000E9477FD7B018C01288139814A815B810D
:104A8000E0E3FEE060817181828193813F922F9209
:104A9000FCE3CF2EFEE0DF2E0E94BABC0E94A5E010
:104AA00082E00E940EE17B018C016093380E7093CE
:104AB000390E80933A0E90933B0E288139814A81BA
:104AC0005B81E0E3FEE060817181828193810E94DD
:104AD0001AC70F900F900F900F900F900F90DF91CB
:104AE000CF911F910F91FF90EF90DF90CF90BF90EB
:104AF000AF909F908F907F906F905F904F903F907E
:104B00002F90089584E59EE00E94BE232091140E0C
:104B10003091150E4091160E5091170E0E9478FD9F
:104B200008954F925F926F927F928F929F92AF9271
:104B3000BF92CF92DF92EF92FF920F931F93CF938A
:104B4000DF9300D01F92CDB7DEB72B013C014901A6
:104B50005A012091340E3091350E4091360E50910D
:104B6000370E6091300E7091310E8091320E90911F
:104B7000330E0E94C4238091000EC090380ED09056
:104B8000390EE0903A0EF0903B0E20E030E040EC21
:104B900051E4811111C0C501B4010E9477FD698300
:104BA0007A838B839C8320E030E044E951E4C301A5
:104BB000B2010E9477FD10C0C501B4010E9477FDCB
:104BC00069837A838B839C8320E030E04CE851E456
:104BD000C301B2010E9478FD8701760129813A81E3
:104BE0004B815C810E94C4230E947D24C090380EBA
:104BF000D090390EE0903A0EF0903B0EEEEDF6E0DC
:104C000064918F01662361F0772767FD70958CEBC7
:104C10009AE10E94490D0F5F1F4FF8016491F2CF96
:104C2000E9EDF6E064918F01662361F0772767FD77
:104C300070958CEB9AE10E94490D0F5F1F4FF801B0
:104C40006491F2CF22E030E0B301A2018CEB9AE153
:104C50000E94C6FCE4EDF6E064918F01662361F0EA
:104C6000772767FD70958CEB9AE10E94490D0F5FE5
:104C70001F4FF8016491F2CF22E030E0B501A401AA
:104C80008CEB9AE10E94C6FCEFECF6E064918F0198
:104C9000662361F0772767FD70958CEB9AE10E949F
:104CA000490D0F5F1F4FF8016491F2CF22E030E011
:104CB000B701A6018CEB9AE10E94C6FCEDECF6E090
:104CC00064918F01662361F0772767FD70958CEB07
:104CD0009AE10E94490D0F5F1F4FF8016491F2CFD6
:104CE000C701B6010F900F900F900F90DF91CF91F9
:104CF0001F910F91FF90EF90DF90CF90BF90AF90FA
:104D00009F908F907F906F905F904F900895CF927B
:104D1000DF92EF92FF92CF93DF93EC016A017B0168
:104D2000FE016491662349F0772767FD70958CEB4F
:104D30009AE10E94490D2196F3CF22E030E0B701BD
:104D4000A6018CEB9AE1DF91CF91FF90EF90DF907D
:104D5000CF900C94C6FCCF92DF92EF92FF92CF934C
:104D6000DF93EC016A017B01FE016491662349F047
:104D7000772767FD70958CEB9AE10E94490D21968B
:104D8000F3CF22E030E0B701A6018CEB9AE1DF918E
:104D9000CF91FF90EF90DF90CF900C94C6FCCF9214
:104DA000DF92EF92FF92CF93DF93EC016A017B01D8
:104DB000FE016491662349F0772767FD70958CEBBF
:104DC0009AE10E94490D2196F3CF2AE030E0B70125
:104DD000A6018CEB9AE1DF91CF91FF90EF90DF90ED
:104DE000CF900C94B1FBCF93DF9320913D0C309189
:104DF0003E0C243031050CF06FC040913F0C5091B7
:104E0000400C60E6649F9001659F300D1124BC0149
:104E1000C901895B934F0F94C807E8E7FEE06491EE
:104E2000EF01662359F0772767FD70958CEB9AE1C7
:104E30000E94490D2196FE016491F3CFE5ECFCE060
:104E40006491EF01662359F0772767FD70958CEB2D
:104E50009AE10E94490D2196FE016491F3CF809161
:104E60003F0C9091400C20E6289FB001299F700DC7
:104E70001124695B734F8CEB9AE10E94BFFAE3EC5B
:104E8000FCE06491EF01662359F0772767FD709588
:104E90008CEB9AE10E94490D2196FE016491F3CFBB
:104EA0006AE070E08CEB9AE10E94490D80913F0C22
:104EB0009091400C019664E070E00F94140290937E
:104EC000400C80933F0C80913D0C90913E0C0196DC
:104ED00090933E0C80933D0CDF91CF910895CF933A
:104EE000DF9320913D0C30913E0C243031050CF0C5
:104EF0006FC040913F0C5091400C60E6649F900160
:104F0000659F300D1124BC01C901895B934F0F943B
:104F10005A07E8E7FEE06491EF01662359F077272E
:104F200067FD70958CEB9AE10E94490D2196FE0178
:104F30006491F3CFE8EBFCE06491EF01662359F054
:104F4000772767FD70958CEB9AE10E94490D2196B9
:104F5000FE016491F3CF80913F0C9091400C20E6CC
:104F6000289FB001299F700D1124695B734F8CEB52
:104F70009AE10E94BFFAE6EBFCE06491EF01662340
:104F800059F0772767FD70958CEB9AE10E94490DE7
:104F90002196FE016491F3CF6AE070E08CEB9AE118
:104FA0000E94490D80913F0C9091400C019664E065
:104FB00070E00F9414029093400C80933F0C80910A
:104FC0003D0C90913E0C019690933E0C80933D0CCD
:104FD000DF91CF910895CF93DF9326E040E950ED24
:104FE00063E070E08CEB9AE10E94B5F8EBEAFCE03C
:104FF0006491EF01662359F0772767FD70958CEB7C
:105000009AE10E94490D2196FE016491F3CF6AE076
:1050100070E08CEB9AE10E94490DE8E7FEE06491B4
:10502000EF01662359F0772767FD70958CEB9AE1C5
:105030000E94490D2196FE016491F3CFE5EAFCE060
:105040006491EF01662359F0772767FD70958CEB2B
:105050009AE10E94490D2196FE016491F3CF6AE026
:1050600070E08CEB9AE10E94490D6DE273E08CEBED
:105070009AE10E94DCFA26E040E45DE063E070E043
:1050800089E59BE10E94B5F869E57BE18BE191E15F
:105090000E94D02265E57CE38BE191E10E94CA2267
:1050A00061E089E00E940BF760E089E00E9444F72C
:1050B00064E670E080E090E00E9467F561E089E0DE
:1050C0000E9444F76CEA7DE080E090E00E9467F582
:1050D00068EE73E080E090E00E9467F520E030E049
:1050E00045E050E06AE070E08BE191E10E94F2213E
:1050F0001092430C1092440C1092450C1092460CE6
:105100000E94FC1E61E08AE00E940BF760E08AE0EA
:105110000E9444F761E08AE00E9444F76FEF70E07C
:105120008CE00E94F1F56FEF70E08BE00E94F1F5EA
:105130006FEF70E08DE00E94F1F50E945FE60E9443
:10514000FFBADF91CF910C9405E0AF92BF92CF925E
:10515000DF92EF92FF920F931F93CF93DF93CDB720
:10516000DEB7DA950FB6F894DEBF0FBECDBF8091E3
:105170001C0C81110DC00E9438F56093F60B7093E2
:10518000F70B8093F80B9093F90B81E080931C0C44
:105190008091670E882309F4D5C00E9438F50091EC
:1051A000F60B1091F70B2091F80B3091F90B60176B
:1051B00071078207930708F4F1C16091E6197091B5
:1051C000E7198091E8199091E9190E94C0FED62E46
:1051D000C72E20E030E040E05FE36091DC19709181
:1051E000DD198091DE199091DF190E9478FD0E94EF
:1051F000C0FEB62EA72E6091E2197091E31980913E
:10520000E4199091E5190E94C0FE7F936F9319E312
:10521000E12E13E0F12EFF92EF928E010F5F1F4FF0
:105220001F930F930F94EC07A80160E070E08BE1EF
:1052300091E10E945A22CF92DF92FF92EF921F9348
:105240000F930F94EC07A80162E270E08BE191E10B
:105250000E945A22AF92BF928EE393E09F938F9366
:105260001F930F930F94EC07A80169E070E08BE1A6
:1052700091E10E945A220FB6F894DEBF0FBECDBF57
:1052800080915E10882319F1809108119091091185
:10529000A0910A11B0910B110097A105B105B9F0C9
:1052A000BC01CD016D597F4F8F4F9F4F24E630E0F9
:1052B00040E050E00F94280260911011709111119C
:1052C00080911211909113110F94280201C020E0D7
:1052D0001F922F93B3E4EB2EB3E0FB2EFF92EF92DD
:1052E0001F930F930F94EC07A80165E270E08BE128
:1052F00091E10E945A2280914D028F9380914C023D
:105300008F93FF92EF921F930F930F94EC07A801D6
:1053100064E270E08BE191E10E945A220E9438F52C
:1053200068577C4E8F4F9F4F6093F60B7093F70B2F
:105330008093F80B9093F90B0FB6F894DEBF0FBE75
:10534000CDBF2CC18091640E882309F427C10E942F
:1053500038F50091F60B1091F70B2091F80B309176
:10536000F90B601771078207930708F417C1609162
:10537000E6197091E7198091E8199091E9190E9456
:10538000C0FED62EC72E20E030E040E05FE3609103
:10539000DC197091DD198091DE199091DF190E945E
:1053A00078FD0E94C0FEB62EA72E6091E219709182
:1053B000E3198091E4199091E5190E94C0FE7F9352
:1053C0006F93A9E3EA2EA3E0FA2EFF92EF928E01EB
:1053D0000F5F1F4F1F930F930F94EC07A80168E214
:1053E00070E08BE191E10E945A22CF92DF92FF920E
:1053F000EF921F930F930F94EC07A8016AE270E0FD
:105400008BE191E10E945A22AF92BF928EE393E02A
:105410009F938F931F930F930F94EC07A80169E25A
:1054200070E08BE191E10E945A226091300E709100
:10543000310E8091320E9091330E0E94C5FE9B0179
:1054400040E050E06FE070E08BE191E10E94F221DA
:105450006091340E7091350E8091360E9091370E1A
:105460000E94C5FE9B0141E050E06FE070E08BE1DF
:1054700091E10E94F2216091380E7091390E809175
:105480003A0E90913B0E0E94C5FE9B0142E050E017
:105490006FE070E08BE191E10E94F2216091F019E0
:1054A0007091F119882777FD8095982F0E94F3FE5F
:1054B00020E030E040EA50E40E9477FD9B01AC011F
:1054C0000FB6F894DEBF0FBECDBF6091E2197091A8
:1054D000E3198091E4199091E5190F94540087FD28
:1054E0004FC06091F2197091F319882777FD80956C
:1054F000982F0E94F3FE20E030E040EA50E40E9442
:1055000077FD9B01AC016091E6197091E7198091DC
:10551000E8199091E9190F94540087FD31C08091EA
:10552000590E882369F16DEF73E08CEB9AE10E94CC
:10553000DCFA80915E02893409F045C06BE473E0C7
:105540008CEB9AE10E94DCFA4DE553E06BE070E0F1
:105550008BE191E10E945A2220E030E043E150E0EB
:105560006AE070E08BE191E10E94F2214DE553E0A9
:105570006BE070E08BE191E10E945A221092590E8B
:105580000E9438F568517C4F8F4F9F4F6093F60B08
:105590007093F70B8093F80B9093F90B8BE191E1EB
:1055A0000E940D21D3950FB6F894DEBF0FBECDBF7C
:1055B000DF91CF911F910F91FF90EF90DF90CF90EF
:1055C000BF90AF9008958235A9F440EA53E06BE0B4
:1055D00070E08BE191E10E945A2220E030E043E14B
:1055E00050E06AE070E08BE191E10E94F22140EA34
:1055F00053E0BECF42EE53E06BE070E08BE191E10F
:105600000E945A2220E030E043E150E06AE070E07E
:105610008BE191E10E94F221B1CF8091370C909102
:10562000380C60E070E001960D94A5048091370C71
:105630009091380C4AE050E060E070E001960D94E3
:105640001606682F772767FD70952091410C3091E1
:10565000420C40E6429FC001439F900D1124895B9C
:10566000934F0F94B4079093380C8093370C21E03C
:10567000892B09F420E0822F0895CF92DF92EF92D8
:10568000FF92892B31F4FF90EF90DF90CF900C9434
:105690008225C0901E02D0901F02E0902002F09060
:1056A000210220E030E0A901C701B6010F945400A7
:1056B000181644F083E3C82E83EFD82E87E9E82E2E
:1056C00083E4F82EC701B601FF90EF90DF90CF90F2
:1056D00008958F929F92AF92BF92CF92DF92EF92F6
:1056E000FF920F931F93CF93DF93009709F0CEC0E3
:1056F0002091000E222329F1822F90E00E943D2B61
:105700006093300E7093310E8093320E9093330E6F
:105710001092080E1092090E10920A0E10920B0EA3
:1057200080911E0290911F02A0912002B09121024F
:105730008093320290933302A0933402B0933502E7
:10574000E9C020910E0230910F022230310509F09C
:105750009DC084E59EE00E94BE232091140E3091EE
:10576000150E4091160E5091170E0E9478FD609311
:10577000300E7093310E8093320E9093330E8CE680
:105780009EE00E94BE232091140E3091150E409190
:10579000160E5091170E0E9478FD6093080E7093BC
:1057A000090E80930A0E90930B0E80E69EE00E94F5
:1057B000BE232091140E3091150E4091160E50917B
:1057C000170E0E9478FD4B015C0100911E021091A2
:1057D0001F02D0912002C091210223E333EF47E959
:1057E00053E4B8018D2F9C2F0F94540018162CF001
:1057F000B3E3A3EFF7E9E3E403C0B02FA12FFE0169
:10580000C0900602D0900702E0900802F0900902D2
:10581000A70196016B2F7A2F8F2F9E2F0E9477FD65
:105820009B01AC01C501B4010E9451FE87FF0FC06E
:1058300080E69EE00E94BE232091140E3091150E4A
:105840004091160E5091170E0E9478FD16C023E36A
:1058500033EF47E953E4B8018D2F9C2F0F94540088
:10586000181624F003E313EFD7E9C3E4A701960168
:10587000B8018D2F9C2F0E9477FD609332027093A8
:105880003302809334029093350244C0EC01CC0F74
:10589000DD1FCC0FDD1FCE018C5A914F0E94BE231D
:1058A0009E01205D314F79018E010C5E114FF80190
:1058B00020813181428153810E9478FDF70160830C
:1058C000718382839383CE018459914F0E94BE23BA
:1058D0009E01285F314F7901F80120813181428199
:1058E00053810E9478FDF7016083718382839383E3
:1058F000CE01805A914F0E94BE23CE5CDD4FF8014D
:1059000020813181428153810E9478FD68837983AF
:105910008A839B83DF91CF911F910F91FF90EF902E
:10592000DF90CF90BF90AF909F908F9008952F926F
:105930003F924F925F926F927F928F929F92AF921F
:10594000BF92CF92DF92EF92FF920F931F93CF936C
:10595000DF93CDB7DEB728970FB6F894DEBF0FBE42
:10596000CDBF1C01FC01E75CF14F6490009721F072
:10597000772467FC70940BC08091000E811104C0E5
:1059800066246A94762C03C066246394712CC1014A
:10599000880F991F880F991F98878F83805D914F7B
:1059A0009C838B83DC011D921D921D921C92139788
:1059B000E090380EF090390E00913A0E10913B0EA7
:1059C0002091340E3091350E4091360E5091370EA5
:1059D0006091300E7091310E8091320E9091330EA5
:1059E000ECE3CE2EEEE0DE2E0E941AC78F81988562
:1059F000885B914F0E94BE236B017C01B301882715
:105A000077FD8095982F0E94F3FE2B013C01EF81DA
:105A1000F885E351F24FFA83E98320E030E040EC6F
:105A20005FE3C701B6010F942601A30192010F9411
:105A30002601A981BA816D937D938D939C931397D1
:105A4000EF81F885E25BFD4FFE83ED83608171811C
:105A500082819381609315027093160280931702DE
:105A60009093180220E030E040E752E40E9458FE94
:105A70004B015C01E090F50DF090F60D0091F70DF3
:105A80001091F80D2091F10D3091F20D4091F30D30
:105A90005091F40D6091ED0D7091EE0D8091EF0D30
:105AA0009091F00DA0E0BEE0BF93AF93F9EFCF2E41
:105AB000FDE0DF2E0E94BABC0E94A5E0AB81BC8154
:105AC0001D921D921D921C921397E090380EF0903B
:105AD000390E00913A0E10913B0E2091340E309108
