:100000000C941F0D0C94500D0C94500D0C94500D2D
:100010000C94500D0C94500D0C94500D0C94500DEC
:100020000C94500D0C94500D0C94500D0C94500DDC
:100030000C94500D0C94500D0C94500D0C94500DCC
:100040000C94500D0C9477D80C94500D0C94500DCA
:100050000C94500D0C94500D0C9490EB0C9454F4A3
:100060000C94500D0C947DF80C94B3F80C94500D36
:100070000C94500D0C94500D0C94500D0C94500D8C
:100080000C94500D0C94500D0C94500D0C94500D7C
:100090000C94500D0C94500D0C94500D0C9423F3B3
:1000A0000C94500D0C94500D0C94500D0C94500D5C
:1000B0000C94500D0C94500D0C94500D0C94500D4C
:1000C0000C94500D0C94500D0C94500D0C942AF976
:1000D0000C9460F90C94500D0C94500D0C94500D30
:1000E0000C94500D18EC25EC41EC4EEC68EC75ECE2
:1000F0008FEC91EC93EC95EC9DEC7DF582F587F51A
:1001000091F59BF514F6A5F5ADF5B5F5BFF5C9F577
:10011000D3F5E2F5ECF514F6F6F500F60AF636F648
:1001200039F628F62CF632F670F63DF641F647F62B
:100130004BF64FF655F659F65DF670F663F667F630
:100140006BF6084AD73B3BCE016E84BCBFFDC12F86
:100150003D6C74319ABD56833DDA3D00C77F11BEB8
:10016000D9E4BB4C3E916BAAAABE000000803F05BB
:10017000A84CCDB2D44EB93836A9020C50B99186EC
:1001800088083CA6AAAA2ABE000000803F000C9462
:1001900014F60C9494F70C9414F70C94B7F20C9496
:1001A000ECF50C9491EC0C946BF60C94F6F50C9425
:1001B00055F60C94E7F90C945E3C0C9494F90C946D
:1001C000ADF50C94DDF80C945FF20C9493EC0C9468
:1001D0000AF60C9436F70C9400F60C9487F50C9400
:1001E0004EEC0C94D3F50C9495EC0C94B6F70C945F
:1001F00041EC0C949BF50C9409F70C9467F60C9465
:10020000E25D0C945DF60C9439F60C94E2F50C94D6
:100210007DF50C94F65D0C94C9F50C9482F50C9464
:1002200025EC0C9447F60C9489F20C949DEC0C94FC
:10023000B5F50C948FEC0C948AF20C9491F50C9417
:100240004FF60C9417D30C9436F60C9467F20C947A
:1002500018EC0C9463F60C9428F60C9459F60C9454
:10026000BFF50C947AF20C94A5F50C9422F70C943B
:1002700068EC0C94F6F20C94A3230C9475EC0C949B
:1002800032F60C948AF90C944BF60C9441F60C94CB
:100290003DF60C9470F60C94E7F80C942CF64D385F
:1002A0003420582059205A2045005430004D323413
:1002B000004D3233202573006175746F25692E67F8
:1002C000006572726F722077726974696E6720744C
:1002D0006F2066696C65004E6F7420534420707205
:1002E000696E74696E67002F005344207072696EE6
:1002F00074696E67206279746520002E0044656C15
:100300006574696F6E206661696C65642C2046694E
:100310006C653A200046696C652064656C6574659F
:10032000643A002E006F70656E206661696C6564CA
:100330002C2046696C653A200057726974696E67B3
:1003400020746F2066696C653A20002E006F70651E
:100350006E206661696C65642C2046696C653A2084
:10036000002E006F70656E206661696C65642C20DC
:1003700046696C653A200046696C652073656C655A
:1003800063746564002053697A653A200046696C9D
:1003900065206F70656E65643A20002E006F706591
:1003A0006E206661696C65642C2046696C653A2034
:1003B000004E6F772066726573682066696C653AD7
:1003C00020004E6F7720646F696E672066696C65E8
:1003D0003A20002220706F73002220706172656ED7
:1003E000743A2200535542524F5554494E452043CA
:1003F000414C4C207461726765743A2200747279C2
:10040000696E6720746F2063616C6C207375622D58
:1004100067636F64652066696C65732077697468CB
:1004200020746F6F206D616E79206C6576656C73DA
:100430002E204D4158206C6576656C2069733A001A
:1004400053442063617264206F6B006F70656E525D
:100450006F6F74206661696C656400766F6C756D92
:10046000652E696E6974206661696C656400534429
:1004700020696E6974206661696C006563686F3A13
:10048000004572726F723A0048617264636F64650E
:10049000642044656661756C742053657474696E7C
:1004A0006773204C6F616465640053746F72656498
:1004B0002073657474696E67732072657472696500
:1004C000766564002044002049002020204D333010
:1004D000312050005049442073657474696E67730D
:1004E0003A00205A0020590020204D323036205842
:1004F00000486F6D65206F666673657420286D6DAA
:10050000293A00204500205A0020580020420020AF
:10051000540020204D323035205300416476616E06
:10052000636564207661726961626C65733A205319
:100530003D4D696E20666565647261746520286D45
:100540006D2F73292C20543D4D696E207472617695
:10055000656C20666565647261746520286D6D2F19
:1005600073292C20423D6D696E696D756D20736530
:10057000676D656E742074696D6520286D73292C14
:1005800020583D6D6178696D756D205859206A65F8
:10059000726B20286D6D2F73292C20205A3D6D61C0
:1005A00078696D756D205A206A65726B20286D6DB3
:1005B0002F73292C2020453D6D6178696D756D2064
:1005C00045206A65726B20286D6D2F7329002054B9
:1005D0000020204D323034205300416363656C6548
:1005E000726174696F6E3A20533D616363656C6537
:1005F000726174696F6E2C20543D72657472616310
:100600007420616363656C65726174696F6E00204C
:100610004500205A0020590020204D32303120580A
:10062000004D6178696D756D20416363656C65721D
:100630006174696F6E20286D6D2F7332293A002026
:100640004500205A0020590020204D3230332058D8
:10065000004D6178696D756D2066656564726174C1
:10066000657320286D6D2F73293A00204500205AAC
:100670000020590020204D393220580053746570F5
:10068000732070657220756E69743A0053657474D6
:10069000696E67732053746F726564006563686F79
:1006A0003A005072696E7465722068616C7465649A
:1006B0002E206B696C6C28292063616C6C65642149
:1006C000006F6B00526573656E643A20000A00206B
:1006D0007A3A200020793A200020783A20004265BA
:1006E00064002200556E6B6E6F776E20636F6D6DC8
:1006F000616E643A202200486F74656E64206F66F4
:1007000066736574733A005A204F66667365742089
:100710003A20007A5F6D61783A20007A5F6D696EE9
:100720003A20005A204F6666736574005A204F665F
:1007300066736574206F6B00486F74656E64206F1C
:100740006666736574733A007A5F6D696E3A20006D
:10075000795F6D61783A2000785F6D61783A2000AA
:10076000785F6D696E3A2000205A3A0020593A00AD
:1007700020436F756E7420583A200020453A0020BF
:100780005A3A0020593A00583A004649524D5741CA
:1007900052455F4E414D453A4D61726C696E20562F
:1007A000313B20537072696E7465722F6772626C90
:1007B000206D617368757020666F722067656E3694
:1007C000204649524D574152455F55524C3A687444
:1007D0007470733A2F2F6769746875622E636F6D3A
:1007E0002F4572696B5A616C6D2F4D61726C696E29
:1007F0002F2050524F544F434F4C5F564552534950
:100800004F4E3A312E30204D414348494E455F54BA
:100810005950453A4D656E64656C204558545255A3
:100820004445525F434F554E543A32205555494442
:100830003A30303030303030302D303030302D30B4
:100840003030302D303030302D30303030303030AE
:1008500030303030300A0020423A0020453A00540F
:100860003A0020573A0020453A00543A00204240CE
:100870003A0020403A00202F003A00205400202F58
:100880000020423A00202F006F6B20543A000A0AE1
:10089000005374616E6461726420446576696174AA
:1008A000696F6E3A20000A004D65616E3A20000AB9
:1008B000002020207A3A200000793A2000783A205F
:1008C000003F537065636966696564206E756D628B
:1008D0006572206F66206C65677320696E206D6F8E
:1008E00076656D656E74206E6F7420706C617573C3
:1008F00061626C652E0A003F5370656369666965C5
:1009000064205920706F736974696F6E206F7574FD
:10091000206F662072616E67652E0A003F53706516
:10092000636966696564205820706F736974696FC4
:100930006E206F7574206F662072616E67652E0A77
:10094000003F5370656369666965642073616D700B
:100950006C652073697A65206E6F7420706C6175A8
:100960007361626C652E0A0046756C6C207375703D
:10097000706F72742061743A20687474703A2F2F0B
:1009800033647072696E74626F6172642E636F6D2E
:100990002F666F72756D2E7068700A004D343820A6
:1009A0005A2D50726F626520526570656174616284
:1009B000696C69747920746573742E2020205665E3
:1009C0007273696F6E20322E30300A003F566572A6
:1009D000626F7365204C6576656C206E6F74207055
:1009E0006C61757361626C652E0A002569206D6902
:1009F0006E2C2025692073656300456E642066694E
:100A00006C65206C69737400426567696E20666965
:100A10006C65206C697374000A00205A3A2000202B
:100A2000593A200020583A200042656400486F6D12
:100A30006520582F59206265666F7265205A000A3A
:100A40000020616E7469686F726172690A3A2000F1
:100A500020686F726172690A20002F3800766F6C0F
:100A6000746573200020566F6C7465732063617227
:100A7000676F6C20333A200020616E7469686F7272
:100A80006172690A3A200020686F726172690A20F7
:100A9000002F3800766F6C746573200020566F6CE1
:100AA00074657320636172676F6C20323A20002096
:100AB000616E7469686F726172690A3A2000206819
:100AC0006F726172690A20002F3800766F6C74654E
:100AD00073200020566F6C74657320636172676FBA
:100AE0006C20313A20000A0020647A333A2000203A
:100AF000647A323A200020647A313A20000A0020D9
:100B00007A633A2000486F6D6520582F592062653E
:100B1000666F7265205A00486F6D6520582F592006
:100B20006265666F7265205A00473238205830205F
:100B3000593000473238205830205930002569207C
:100B4000686F757273202569206D696E75746573A1
:100B500000446F6E65207072696E74696E672066FE
:100B6000696C6500473639005072696E7465722091
:100B700073746F707065642064756520746F206590
:100B800072726F72732E20466978207468652065D2
:100B900072726F7220616E6420757365204D3939F1
:100BA0003920746F20726573746172742E2028541A
:100BB000656D706572617475726520697320726508
:100BC0007365742E205365742069742061667465A2
:100BD000722072657374617274696E6729006F6B3D
:100BE000004E6F204C696E65204E756D62657220F7
:100BF0007769746820636865636B73756D2C204C2E
:100C0000617374204C696E653A20004E6F20436812
:100C100065636B73756D2077697468206C696E65A8
:100C2000206E756D6265722C204C617374204C6966
:100C30006E653A2000636865636B73756D206D693E
:100C4000736D617463682C204C617374204C696E01
:100C5000653A20004C696E65204E756D62657220A4
:100C60006973206E6F74204C617374204C696E65DB
:100C7000204E756D6265722B312C204C617374208F
:100C80004C696E653A20004D31313000446F6E651D
:100C900020736176696E672066696C652E006F6BE4
:100CA000004D32390073746172740030312D302E72
:100CB000302E32002200656E717565696E672022E4
:100CC000002200656E717565696E672022004D38DF
:100CD0003420582059205A204500473433004732E9
:100CE0003800473430004732380047323820583017
:100CF00020593000473238205830205930004D35C7
:100D0000303000473431004D35303000473430004A
:100D10005430004D35303000473433005431004DED
:100D2000353030004D353030004D353030004D35E8
:100D30003030004D353030004D353030004D3530DD
:100D400030004D353030004D353030004D353030CD
:100D500000473431004D35303000473431004D35D7
:100D6000303000473431004D3530300047343100E9
:100D70004D35303000473431004D35303000473488
:100D800031004D35303000473431004D35303000C2
:100D9000473431004D35303000473431004D353067
:100DA0003000473431004D3530300054300054307D
:100DB00000473334005430004732380047333400A2
:100DC0005430004732380047333400543000473243
:100DD000380047333400543000473238004734334A
:100DE000004733340054300047323800473238204F
:100DF00058302059300047323820583020593000C0
:100E00004D3234004D3233202573004D3834205894
:100E10002059205A2045005430004732382058309D
:100E200020593000543000543100473730004D38DD
:100E30003420582059205A20450054300047323879
:100E40002058302059300047323800FF01FF0000A1
:100E5000A0400000A0400000004033F39743008012
:100E600093430000524300000000008093430000C1
:100E7000000033F397430080934300005243000087
:100E8000000000000000000000006563686F3A0089
:100E90004572726F723A0020636F6C6420657874DB
:100EA000727573696F6E2070726576656E746564B5
:100EB000006563686F3A007C3C3E5E2B3D3F2F5BD4
:100EC0005D3B2C2A225C00205A3A0020593A00202F
:100ED000583A00656E6473746F7073206869743A71
:100EE000200024F4D43050C38E20C2A24017828B3D
:100EF0007011127A910D816CD90AA861E108C75866
:100F00006607615143061E4B5D05C145A7041A41A2
:100F10001104093D9803713931034036DB02653312
:100F20009102D4305402802E1D02632CEE01752AEA
:100F3000C501B028A001102781018F2564012B2451
:100F40004B01E0223401AC211F018D200D01801FD7
:100F5000FC00841EED00971DDF00B81CD200E61BCC
:100F6000C600201BBC00641AB200B219A8000A19FE
:100F7000A0006A189900D117910040178B00B51690
:100F8000840031167E00B31579003A157300C7143A
:100F90006F0058146A00EE1366008813630025136F
:100FA0005E00C7125B006C12570015125400C1118D
:100FB000510070114F0021114B00D61049008D10C7
:100FC00047004610440002104200C00F4000800F4E
:100FD0003E00420F3C00060F3B00CB0E3800930E44
:100FE00037005C0E3500270E3400F30D3200C10DC2
:100FF0003100900D3000600D2E00320D2D00050DDA
:101000002C00D90C2B00AE0C2900850C29005C0C9F
:101010002700350C27000E0C2600E80B2400C40B1B
:101020002400A00B23007D0B23005A0B2100390B59
:101030002100180B2000F80A1F00D90A1E00BB0A65
:101040001E009D0A1D00800A1D00630A1C00470A3D
:101050001B002C0A1B00110A1A00F7091A00DD09EF
:101060001900C4091900AB091900920917007B097E
:101070001800630917004C091600360916002009EC
:1010800016000A091500F5081500E0081400CC0840
:101090001400B8081400A4081400900813007D0878
:1010A00012006B081300580812004608120034089A
:1010B0001100230811001208110001081100F007A7
:1010C0001000E0071000D0071000C0071000B007A4
:1010D0000F00A107100091070E0083070F0074078F
:1010E0000F0065070E0057070E0049070E003B076B
:1010F0000D002E070E0020070D0013070D00060738
:101100000D00F9060C00ED060D00E0060C00D406FB
:101110000C00C8060C00BC060C00B0060C00A406AF
:101120000B0099060C008D060B0082060B0077065B
:101130000B006C060B0061060A0057060B004C06FC
:101140000A0042060A0038060A002E060A00240693
:101150000A001A060A001006090007060A00FD0523
:101160000900F4050900EB050900E2050900D905AD
:101170000900D0050900C7050900BE050900B5052D
:101180000800AD050800A50509009C0508009405A8
:1011900008008C050800840508007C05080074051B
:1011A00008006C050700650508005D050700560589
:1011B00008004E05070047050700400508003805F0
:1011C0000700310507002A050700230507001C0555
:1011D0000600160507000F050700080506000205B2
:1011E0000700FB040600F5040700EE040600E8040F
:1011F0000600E2040700DB040600D5040600CF0465
:101200000600C9040600C3040600BD040600B704B6
:101210000600B1040500AC040600A6040600A00404
:1012200005009B04060095040500900406008A044E
:10123000050085040500800406007A040500750495
:101240000500700405006B040500660405006104D8
:1012500005005C04050057040500520405004D0418
:10126000050048040500430405003E0404003A0458
:10127000050035040500300404002C040500270493
:101280000400230405001E0404001A0404001604CC
:101290000500110404000D04040009040500040401
:1012A000040000040400FC030400F8030400F40339
:1012B0000400F0030400EC030400E8030400E4036A
:1012C0000400E0030400DC030400D8030400D4039A
:1012D0000400D0030400CC030400C8030300C503CA
:1012E000030024F404D9201BC40C5C0E9804C40928
:1012F0005F0265077101F405F900FB04B3004804BF
:101300008700C10369005803550003034500BE026E
:101310003A008402310053022A0029022500040207
:101320002000E4011C00C8011900AF01170098015A
:1013300014008401130071011000610110005101BB
:101340000E0043010D0036010B002B010B002001A4
:101350000B00150109000C01090003010800FB0046
:101360000800F3000800EB000700E4000600DE00C0
:101370000600D8000600D2000600CC000500C70019
:101380000500C2000500BD000400B9000400B5005E
:101390000400B1000400AD000400A9000400A50091
:1013A0000300A20003009F0004009B0003009800BC
:1013B00003009500020093000300900003008D00DD
:1013C00002008B00030088000200860002008400F7
:1013D0000300810002007F0002007D0002007B000C
:1013E000020079000200770001007600020074001C
:1013F000020072000100710002006F0002006D0027
:1014000001006C0002006A00010069000200670030
:101410000100660001006500010064000200620036
:10142000010061000100600001005F0002005D003A
:1014300001005C0001005B0001005A00010059003E
:10144000010058000100570001005600010055003E
:10145000010054000100530000005300010052003D
:10146000010051000100500001004F0001004E003A
:1014700000004E0001004D0001004C0001004B0037
:1014800000004B0001004A00010049000100480033
:10149000000048000100470001004600000046002F
:1014A0000100450000004500010044000100430028
:1014B0000000430001004200000042000100410022
:1014C000000041000100400001003F0000003F001B
:1014D00001003E0000003E0001003D0000003D0014
:1014E00001003C0000003C0000003C0001003B000B
:1014F00000003B0001003A0000003A000100390002
:1015000000003900010038000000380000003800F9
:1015100001003700000037000100360000003600EF
:1015200000003600010035000000350000003500E5
:1015300001003400000034000000340001003300DA
:1015400000003300000033000100320000003200D0
:1015500000003200010031000000310000003100C5
:1015600001003000000030000000300001002F00BA
:1015700000002F0000002F0000002F0001002E00AF
:1015800000002E0000002E0001002D0000002D00A4
:1015900000002D0000002D0001002C0000002C0098
:1015A00000002C0000002C0001002B0000002B008C
:1015B00000002B0000002B0001002A0000002A0080
:1015C00000002A0000002A00010029000000290074
:1015D0000000290000002900000029000100280067
:1015E000000028000000280000002800000028005B
:1015F000010027000000270000002700000027004E
:101600000000270001002600000026000000260040
:101610000000260000002600010025000000250033
:101620000000250000002500000025000000250026
:101630000100240000002400000024000000240019
:10164000000024000100230000002300000023000C
:1016500000002300000023000000230000002300FE
:1016600001002200000022000000220000002200F1
:1016700000002200000022000100210000002100E3
:1016800000002100000021000000210000002100D6
:1016900000002100010020000000200000002000C8
:1016A00000002000000020000000200000002000BA
:1016B0000000200001001F0000001F0000001F00AC
:1016C00000001F0000001F0000001F0000001F009E
:1016D00001001E0000001E0000001E0000001E0091
:1016E00000006563686F3A00504944204175746F8B
:1016F00074756E652066696E697368656421205033
:10170000757420746865206C617374204B702C2094
:101710004B6920616E64204B6420636F6E7374614B
:101720006E74732066726F6D2061626F76652069DA
:101730006E746F20436F6E66696775726174696F4E
:101740006E2E6800504944204175746F74756E6543
:10175000206661696C6564212074696D656F7574BC
:101760000020403A006F6B20543A006F6B20423AE1
:1017700000504944204175746F74756E6520666130
:10178000696C6564212054656D7065726174757251
:101790006520746F6F206869676800204B643A2089
:1017A00000204B693A2000204B703A200020436C07
:1017B00061737369632050494420002054753A20B6
:1017C00000204B753A2000206D61783A2000206D92
:1017D000696E3A200020643A200020626961733A01
:1017E000200070012C0190012701B0012201C001ED
:1017F0001D01F00118011002130130020E016002F8
:10180000090190020401C002FF000003FA00400336
:10181000F5008003F000D003EB002004E600700424
:10182000E100E004DC004005D700C005D20040061E
:10183000CD00D006C8008007C3003008BE00F00805
:10184000B900C009B400B00AAF00B00BAA00D00CB8
:10185000A500000EA000500F9B00C0109600501273
:10186000910000148C00C0158700B0178200B019D9
:101870007D00D01B7800001E730040206E00902277
:101880006900F024640040275F0090295A00E02B93
:101890005500102E500020304B0010324600E0332F
:1018A000410090353C001037370070383200A039C5
:1018B0002D00B03A2800A03B2300603C1E00103DE4
:1018C0001900903D1400103E0F00703E0A00C03E0B
:1018D0000500003F000000000A0B02090C0D0E0875
:1018E00007030401000000000000000000000000E9
:1018F00000000000000000000000000000000000E8
:1019000000001211100000000000000000000000A4
:101910000000000000000000000000000102102094
:101920002008081020401020408002010201080415
:1019300002010102040810204080804020100804A9
:101940000201800402018040201008040201080402
:101950000201010204081020408001020408102046
:10196000408005050505070508080808020202026F
:101970000A0A08080404040401010101010101012B
:101980000303030303030303040707070C0C0C0CF6
:101990000C0C0C0C020202020606060606060606DF
:1019A0000B0B0B0B0B0B0B0B000020002300260076
:1019B00029002C002F003200000100000301060165
:1019C000090100002200250028002B002E00310014
:1019D000340002010000050108010B010000210094
:1019E000240027002A002D003000330001010000F0
:1019F000040107010A014E414E494E495459494ECE
:101A000046CDCCCC3D0AD7233C17B7D13877CC2B69
:101A1000329595E6241FB14F0A000020410000C80E
:101A20004200401C4620BCBE4CCA1B0E5AAEC59D8F
:101A30007400A323E25DF6F2E7F894F9F65D112451
:101A40001FBECFEFD1E2DEBFCDBF00E00CBF1BE079
:101A5000A0E0B2E0E8EFF4E102E00BBF02C00790C3
:101A60000D92A03DB107D9F72CE1A0EDBBE001C07C
:101A70001D92A630B207E1F71AE1CCE3DAE100E00B
:101A800006C022970109FE010BBF0F94E801C23383
:101A9000D10780E00807A9F70E94D8F90D946A0AD7
:101AA0000C940000DC01ED91FC910190F081E02D9F
:101AB0001994FC01148217821382128289E49BE03C
:101AC00091838083089529E43BE0FC0131832083E6
:101AD0002781222319F004960C9471CE0895CF9299
:101AE000DF92EF92FF920F931F93CF93DF93EC015E
:101AF000895A9F4F0E94590DCE0188589F4F0E94CE
:101B0000590D7E0127E9E20EF11C87016E0133E3D6
:101B1000C31A3EEFD30AC8010E94590D015E1F4F40
:101B20000C151D05C1F7FE01E153FE4F89E18183CC
:101B300014823596178ACE018E509E4F0E94590D01
:101B4000FE01ED55FD4F10821182128213823896EC
:101B500010821182128213821A821B821C821882C6
:101B600019826E0189E5C81A8DEFD80AF601108234
:101B7000118212821382F80111821082FE01EF5E3F
:101B8000FD4F108286E391E0F7019C0111922150F4
:101B90003040E1F7FE01E155FD4F81E08083CB5AF3
:101BA000DF4F198218820E949EF468577C4E8F4F37
:101BB0009F4FF6016083718382839383DF91CF917E
:101BC0001F910F91FF90EF90DF90CF900895FC014F
:101BD00020E03EE2DB014C91403241F0283011F42C
:101BE00030833196DB014C91408331962F5F6F5FDC
:101BF0007F4F2B3079F7108208952F923F924F92AA
:101C00005F926F927F928F929F92AF92BF92CF928C
:101C1000DF92EF92FF920F931F93CF93DF93CDB795
:101C2000DEB7C858D1090FB6F894DEBF0FBECDBFDE
:101C30008C016B017A01CA57DF4F1882C658D04019
:101C400084E0E80EF11C180192E1290E311CF80124
:101C5000EC5AFF4FC957DF4FF983E883C758D0408C
:101C60005801F0E5AF1AFDEFBF0A38018EE4681A9B
:101C70008DEF780A80E4482E512C4C0E5D1E94E0C6
:101C8000490E511CA101BE016F5F7F4FC7010E9429
:101C9000D6CC18160CF013C12C85322F3871303188
:101CA00009F099C0F501808191810197029708F4AC
:101CB00092C0BE016F5F7F4FCE0187589F4F0E9439
:101CC000E70DA0961FAEA097F6018081811107C095
:101CD00061EF72E0CE01815A9F4F0F940F07B6015A
:101CE000CE01815A9F4F0F940F07BE0167587F4F57
:101CF000CE01815A9F4F0F940F0761EF72E0CE0122
:101D0000815A9F4F0F940F07CE01805C9F4F0E9416
:101D1000590D21E0AE0147585F4FB701C2010E9443
:101D20007AD0811131C0F50180819181892B61F5D3
:101D3000EBE7F4E064914F01662369F0772767FDD4
:101D4000709586EC9AE10E94520DFFEF8F1A9F0A60
:101D5000F4016491F1CF63EF72E086EC9AE10E94A6
:101D600025FA6AE070E086EC9AE10E94520DBE010D
:101D700067587F4F86EC9AE10E9425FA6AE070E08E
:101D800086EC9AE10E94520D8BE1FE01EC5BFF4F65
:101D9000DE01959601900D928A95E1F724968EAD1D
:101DA0009FAD24979CA38BA389E49BE09AA389A36E
:101DB000AE014F5D5F4FBE01615A7F4FC8010E9467
:101DC000FD0DCE0181960E94630DCE01805C9F4F78
:101DD0000E94630D57CF8981882309F470C0853E26
:101DE00009F450CF8E3209F44DCF8F3509F44ACF24
:101DF000F8018289882331F08E3209F443CF8F3580
:101E000009F440CF23FD3ECF81E0303109F080E07E
:101E1000C957DF4FE881F981C758D04080838111CD
:101E200008C08985873409F02DCF8A858E3709F45B
:101E300029CF4801F5E08F0E911CBE016F5F7F4FE7
:101E4000C4010E94E70DF50180819181009789F41A
:101E5000B60186EC9AE10E9425FAB40186EC9AE17B
:101E60000E9425FA6AE070E086EC9AE10E94520D29
:101E700009CF8130910539F4F30180819181019678
:101E800091838083FFCE029709F0FCCECA57DF4FC3
:101E9000F881C658D0402F2F30E0F3018081918126
:101EA0002817390761F0CA57DF4FF881C658D0406C
:101EB000FF5FCA57DF4FF883C658D040E3CEC857FC
:101EC000DF4F0FB6F894DEBF0FBECDBFDF91CF91CD
:101ED0001F910F91FF90EF90DF90CF90BF90AF9048
:101EE0009F908F907F906F905F904F903F902F903A
:101EF00008950F931F93CF93DF93CDB7DEB76F97FE
:101F00000FB6F894DEBF0FBECDBF8C01FC01E055CB
:101F1000FD4F1182108240E050E0BA01855A9F4F78
:101F20000E948BCDC801895A9F4F2BE1FC0134964A
:101F3000DE01159601900D922A95E1F7FC01828150
:101F400093819C838B8389E49BE09A838983AE0190
:101F50004F5F5F4F6FE27AE0C8010E94FD0DCE0136
:101F600001960E94630D6F960FB6F894DEBF0FBE08
:101F7000CDBFDF91CF911F910F9108952BE1FB0110
:101F80003496DC01149601900D922A95E1F7FB013D
:101F900022813381FC01338322830895EF92FF92E3
:101FA0000F931F93CF93DF93EC011C82FC01E25A45
:101FB000FF4F8081882329F0CE01855A9F4F0E94D0
:101FC00071CE7E0181E3E81A8EEFF80A45E360E006
:101FD000C7010E94C9C881113EC0EBE7F4E06491DB
:101FE0008F01662361F0772767FD709586EC9AE193
:101FF0000E94520D0F5F1F4FF8016491F2CFEEE681
:10200000F4E064918F01662361F0772767FD709596
:1020100086EC9AE10E94520D0F5F1F4FF801649108
:10202000F2CF6AE070E086EC9AE10E94520D8E01D8
:10203000095A1F4FB801CE0188589F4F0E94BE0F0A
:10204000CA58DF4F19830883DF91CF911F910F91F9
:10205000FF90EF9008958E010C521E4F41E0B701A2
:10206000C8010E948BD681112CC040E0B701C80185
:102070000E948BD6811125C0E1E8F4E064918F01C4
:10208000662361F0772767FD709586EC9AE10E94E0
:10209000520D0F5F1F4FF8016491F2CFEBE5F4E0B2
:1020A00064918F01662309F4BCCF772767FD709593
:1020B00086EC9AE10E94520D0F5F1F4FF801649168
:1020C000F1CFB801CE01855A9F4F0E9476CB811186
:1020D00025C0E1E8F4E064918F01662361F0772781
:1020E00067FD709586EC9AE10E94520D0F5F1F4FBD
:1020F000F8016491F2CFEBE4F4E064918F01662380
:1021000009F48FCF772767FD709586EC9AE10E94DE
:10211000520D0F5F1F4FF8016491F1CF81E08C8366
:10212000EBE7F4E064918F01662361F0772767FDA8
:10213000709586EC9AE10E94520D0F5F1F4FF801D7
:102140006491F2CFE0E4F4E064918F01662309F436
:1021500068CF772767FD709586EC9AE10E94520D53
:102160000F5F1F4FF8016491F1CFFC0112821482BE
:102170000895FC018481882319F081E08283138211
:102180000895FC018281882319F0128281E0838303
:102190000895AF92BF92CF92DF92EF92FF920F938A
:1021A0001F93CF93DF931F92CDB7DEB78C018FE2E1
:1021B000FB0181935F01D12C41E07801F3E3EF1A39
:1021C000FEEFFF0A9FE1C92E2D2D30E0F70180813F
:1021D000918128173907D8F4C29EC001C39E900D83
:1021E000112485569F4FB501800F911F49830E948E
:1021F0001BCBC50149815C010196F5012081222399
:1022000021F04D3810F44F5FF6CFD394DDCF47FD6A
:1022100011C0B501C8018A509E4F0F90DF91CF9138
:102220001F910F91FF90EF90DF90CF90BF90AF90F4
:102230000C941BCBF50110820F90DF91CF911F9171
:102240000F91FF90EF90DF90CF90BF90AF900895E7
:102250003F924F925F926F927F928F929F92AF9236
:10226000BF92CF92DF92EF92FF920F931F93CF9383
:10227000DF93CDB7DEB7AC970FB6F894DEBF0FBED5
:10228000CDBF8C016B01342EFC018481882309F4BD
:10229000EEC2E750FE4F8081882309F413C121115B
:1022A000DAC07801FFEEEF1AFDEFFF0AF701808137
:1022B000882309F435C0E1E8F4E064918F016623D6
:1022C00061F0772767FD709586EC9AE10E94520DC8
:1022D0000F5F1F4FF8016491F2CFEDEFF3E06491CF
:1022E0008F01662361F0772767FD709586EC9AE190
:1022F0000E94520D0F5F1F4FF8016491F2CF4AE028
:1023000050E061E070E086EC9AE10E94F7FA6AE042
:1023100070E086EC9AE10E94520D0E941D38A7C21F
:10232000EBE7F4E064915F01662369F0772767FDCE
:10233000709586EC9AE10E94520DFFEFAF1ABF0A2A
:10234000F5016491F1CFE4EEF3E064915F0166235F
:1023500069F0772767FD709586EC9AE10E94520D2F
:10236000FFEFAF1ABF0AF5016491F1CFB60186EC19
:102370009AE10E9425FAE9EDF3E064915F0166239A
:1023800069F0772767FD709586EC9AE10E94520DFF
:10239000FFEFAF1ABF0AF5016491F1CFF701808119
:1023A0002DE8B22EB801B89E600D711D11246A5E31
:1023B0007D4FC8010E94C910F7018081B801B89E05
:1023C000600D711D11246A5E7D4F86EC9AE10E94BA
:1023D00025FAE3EDF3E064915F01662369F0772766
:1023E00067FD709586EC9AE10E94520DFFEFAF1ADF
:1023F000BF0AF5016491F1CF5801F5E5AF1AFDEF81
:10240000BF0AF50140815181628173812AE030E089
:1024100086EC9AE10E9417FB6AE070E086EC9AE194
:102420000E94520DF7012081F80184E0289FE00D01
:10243000F11D1124AF014E5E5D4FF5018081918148
:10244000A281B381FA0180839183A283B3832F5F3A
:10245000F701208331C0EBE7F4E064917F0166234C
:1024600069F0772767FD709586EC9AE10E94520D1E
:10247000FFEFEF1AFF0AF7016491F1CFE2ECF3E00E
:1024800064917F01662369F0772767FD709586EC7C
:102490009AE10E94520DFFEFEF1AFF0AF7016491D3
:1024A000F1CFB60186EC9AE10E9425FA6AE070E06D
:1024B00086EC9AE10E94520DC8018A509E4F0E94FC
:1024C00071CE35C0F801EF5EFD4F1082EBE7F4E00E
:1024D00064917F01662369F0772767FD709586EC2C
:1024E0009AE10E94520DFFEFEF1AFF0AF701649183
:1024F000F1CFE1EBF3E064917F01662369F0772788
:1025000067FD709586EC9AE10E94520DFFEFEF1A7D
:10251000FF0AF7016491F1CFB60186EC9AE10E94BF
:1025200025FA6AE070E086EC9AE10E94520DF8010B
:102530001282CE0101965C010E94590D280196E796
:10254000490E511CC801895A9F4FF2019183808323
:10255000F60180818F3209F07EC06FE270E0C60123
:102560000F941A0701967C01E114F10409F479C073
:102570006FE270E0C7010F941A074C01009709F44D
:1025800071C0E816F90608F06DC03C016E187F08AE
:10259000A301B701CE0180960F944307E0E2F0E07B
:1025A000EC0FFD1FE60DF71D1082BE01605E7F4F30
:1025B00086EC9AE10E9425FA6AE070E086EC9AE1E6
:1025C0000E94520DF201608171816115710519F04F
:1025D0006C5F7F4F02C060E070E021E0AE01405EC2
:1025E0005F4FCE0105960E947AD081112CC0EDE993
:1025F000F3E064918F01662361F0772767FD7095A2
:1026000086EC9AE10E94520D0F5F1F4FF801649112
:10261000F2CFBE01605E7F4F86EC9AE10E9425FA00
:10262000EBE9F3E064918F01662309F417C1772782
:1026300067FD709586EC9AE10E94520D0F5F1F4F67
:10264000F8016491F1CFF201B182A0827401FFEF31
:10265000EF1AFF0A89CFC80188589F4FF201918372
:1026600080837601C8018A509E4F4C01F20160813F
:102670007181332009F4A0C06115710519F06C5FF8
:102680007F4F02C060E070E021E0A701C4010E941A
:102690007AD0882309F466C0F40181899289A389DC
:1026A000B489F801ED55FD4F80839183A283B383F4
:1026B000EDE8F3E064914F01C8018D559D4F6C0129
:1026C000662369F0772767FD709586EC9AE10E9492
:1026D000520D9FEF891A990AF4016491F1CFB70165
:1026E00086EC9AE10E9425FAE5E8F3E064917F0127
:1026F000662369F0772767FD709586EC9AE10E9462
:10270000520DFFEFEF1AFF0AF7016491F1CFF601C6
:1027100040815181628173812AE030E086EC9AE148
:102720000E9417FB6AE070E086EC9AE10E94520D6D
:10273000F801E555FD4F1082118212821382E7E7FE
:10274000F3E064918F01662309F488C0772767FD61
:10275000709586EC9AE10E94520D0F5F1F4FF801B1
:102760006491F1CFE3E6F3E064918F01662361F0B9
:10277000772767FD709586EC9AE10E94520D0F5FF6
:102780001F4FF8016491F2CFB70186EC9AE10E94E5
:1027900025FAE1E6F3E064918F01662309F45EC057
:1027A000772767FD709586EC9AE10E94520D0F5FC6
:1027B0001F4FF8016491F1CF6115710519F06C5F3D
:1027C0007F4F02C060E070E026E5A701C4010E94CF
:1027D0007AD0811129C0EDE4F3E064918F01662382
:1027E00061F0772767FD709586EC9AE10E94520DA3
:1027F0000F5F1F4FF8016491F2CFB70186EC9AE1A9
:102800000E9425FAEBE4F3E064918F01662331F135
:10281000772767FD709586EC9AE10E94520D0F5F55
:102820001F4FF8016491F2CF81E0F8018083E9E362
:10283000F3E064918F01662361F0772767FD70955F
:1028400086EC9AE10E94520D0F5F1F4FF8016491D0
:10285000F2CFB60186EC9AE10E9425FA6AE070E0B8
:1028600086EC9AE10E94520DC5010E94630DAC9660
:102870000FB6F894DEBF0FBECDBFDF91CF911F9191
:102880000F91FF90EF90DF90CF90BF90AF909F900F
:102890008F907F906F905F904F903F90089521E0D0
:1028A000FC01218340E00C9428114F925F926F92BB
:1028B0007F928F929F92AF92BF92CF92DF92EF92D0
:1028C000FF920F931F93CF93DF93CDB7DEB7AC97F3
:1028D0000FB6F894DEBF0FBECDBF7C015B01FC01DB
:1028E0008481882309F403C1C7018A509E4F0E9446
:1028F00071CEF7011282CE0101966C010E94590D32
:10290000270196E7490E511CC701895A9F4FF201D2
:1029100091838083F50180818F3209F07AC06FE264
:1029200070E0C5010F941A078C010F5F1F4F09F467
:1029300076C06FE270E0C8010F941A074C0100974F
:1029400009F46EC00817190708F06AC03C01601A44
:10295000710AA301B801CE0180960F944307E0E20B
:10296000F0E0EC0FFD1FE60DF71D1082BE01605E6A
:102970007F4F86EC9AE10E9425FA6AE070E086ECCF
:102980009AE10E94520DF201608171816115710519
:1029900019F06C5F7F4F02C060E070E021E0AE0193
:1029A000405E5F4FCE0105960E947AD081112CC007
:1029B000E5E2F3E064918F01662361F0772767FD1C
:1029C000709586EC9AE10E94520D0F5F1F4FF8013F
:1029D0006491F2CFBE01605E7F4F86EC9AE10E9467
:1029E00025FAE3E2F3E064918F01662309F476C0EF
:1029F000772767FD709586EC9AE10E94520D0F5F74
:102A00001F4FF8016491F1CFF201D182C08284019D
:102A10008CCFC70188589F4FF20191838083850135
:102A2000F20180819181009711F0049602C080E04C
:102A300090E0B8010E945AD1882331F1E5E1F3E03A
:102A400064915F01662369F0772767FD709586ECD6
:102A50009AE10E94520DFFEFAF1ABF0AF50164918F
:102A6000F1CFB80186EC9AE10E9425FA6AE070E0A5
:102A700086EC9AE10E94520DF701E555FD4F108258
:102A800011821282138230C0EDEFF2E064917F0177
:102A9000662369F0772767FD709586EC9AE10E94BE
:102AA000520DFFEFEF1AFF0AF7016491F1CFB80161
:102AB00086EC9AE10E9425FAEBEFF2E064918F0137
:102AC000662361F0772767FD709586EC9AE10E9496
:102AD000520D0F5F1F4FF8016491F2CF6AE070E072
:102AE00086EC9AE10E94520DC6010E94630DAC96DD
:102AF0000FB6F894DEBF0FBECDBFDF91CF911F910F
:102B00000F91FF90EF90DF90CF90BF90AF909F908C
:102B10008F907F906F905F904F9008950F931F93C9
:102B2000CF93DF93EC018C81882309F43EC0E9EE5A
:102B3000F2E064918F01662361F0772767FD70955D
:102B400086EC9AE10E94520D0F5F1F4FF8016491CD
:102B5000F2CFFE01E555FD4F4081518162817381C5
:102B60002AE030E086EC9AE10E9417FBE7EEF2E003
:102B700064918F01662361F0772767FD709586EC7D
:102B80009AE10E94520D0F5F1F4FF8016491F2CF3E
:102B9000CD55DD4F488159816A817B812AE030E043
:102BA00086EC9AE10E9417FB11C0E7EDF2E0649118
:102BB000EF01662359F0772767FD709586EC9AE15F
:102BC0000E94520D2196FE016491F3CF6AE070E0FD
:102BD00086EC9AE1DF91CF911F910F910C94520DE9
:102BE000AF92BF92CF92DF92EF92FF920F931F931B
:102BF000CF93DF935C01EB01FB0101900020E9F72B
:102C00008F0101501109061B170B6C01FAE0CF1A56
:102C1000FEEFDF0AF60110826EE470E0CE010F9441
:102C20001A077C01009729F4F8013197EC0FFD1F7A
:102C30000DC060E270E00F941A07EC0121966AE281
:102C400070E0C7010F941A07FC0131978DE0818372
:102C50008AE082831382BE01C5018E509E4F0E947E
:102C600029D3F6018081882391F1E1E8F4E06491B1
:102C7000EF01662359F0772767FD709586EC9AE19E
:102C80000E94520D2196FE016491F3CFE1ECF2E037
:102C90006491EF01662359F0772767FD709586EC04
:102CA0009AE10E94520D2196FE016491F3CF6AE0F1
:102CB00070E086EC9AE1DF91CF911F910F91FF9028
:102CC000EF90DF90CF90BF90AF900C94520DDF91BA
:102CD000CF911F910F91FF90EF90DF90CF90BF9019
:102CE000AF9008952F923F924F925F926F927F9292
:102CF0008F929F92AF92BF92CF92DF92EF92FF920C
:102D00000F931F93CF93DF93CDB7DEB7CC55D10987
:102D10000FB6F894DEBF0FBECDBF4C018C0101553C
:102D20001D4F662339F0F8011082F401848181116E
:102D30001EC015C0F8018081882309F4B0C0F401D9
:102D4000E955FD4FC080D180E280F3800E949EF45F
:102D5000C616D706E806F90608F4A1C0E4CFC401F8
:102D60000E94CE0FF4018481882309F498C0740175
:102D7000F5E5EF0EF11CF70181818F9380818F9330
:102D800088EB92E09F938F938E01015C1F4F1F93FE
:102D90000F930F9481070F900F900F900F900F904B
:102DA0000F90B12CF80101900020E9F73197E01B5A
:102DB000F10BBE1684F46801CB0CD11CB7FCDA947D
:102DC000F6018081992787FD90950F94B806F6014A
:102DD0008083B394E7CFFBE58F0E911C40E050E079
:102DE000BA01C4010E948BCD512CCE0101966C0119
:102DF00031EB632E32E0732E5E0191E2A90EB11C1D
:102E000040E050E0B601C4010E94D6CC1816DCF5B3
:102E1000412CF60101900020E9F73197EC19FD09EA
:102E20004E1674F41601240C311C47FC3A94F1013F
:102E3000808190E00F94B806F10180834394E9CF3C
:102E40008A858E37E9F245E050E0B801C6010F945B
:102E50003507892BA9F61F930F937F926F92BF922C
:102E6000AF920F948107C5010E94FC268DEA92E083
:102E70000E9478270F900F900F900F900F900F9057
:102E800055245394BDCF511004C08FEF9FEFF7012D
:102E900004C0F70180819181019691838083C45A97
:102EA000DF4F0FB6F894DEBF0FBECDBFDF91CF91DD
:102EB0001F910F91FF90EF90DF90CF90BF90AF9058
:102EC0009F908F907F906F905F904F903F902F904A
:102ED00008950F931F93CF93DF93EC018C010A5059
:102EE0001E4FC8010E9425CEC8010E9471CE1882D3
:102EF0001982DF91CF911F910F910895EF92FF9268
:102F00000F931F93CF93DF93CDB7DEB76F970FB6B5
:102F1000F894DEBF0FBECDBF8C017C0186E7E80EC2
:102F2000F11CC80188589F4FF70191838083E65CAC
:102F3000FD4F22E030E031832083329670E07183D0
:102F4000608340E050E0BA0104960E948BCDF70107
:102F5000808191812BE1FC013496DE011596019070
:102F60000D922A95E1F7FC01828193819C838B83EA
:102F700089E49BE09A838983AE014F5F5F4F6FE2E4
:102F80007AE0C8010E94FD0DCE0101960E94630DFA
:102F90006F960FB6F894DEBF0FBECDBFDF91CF9115
:102FA0001F910F91FF90EF900895CF92DF92EF92D3
:102FB000FF920F931F93CF93DF93CDB7DEB76F9739
:102FC0000FB6F894DEBF0FBECDBF8C016C0126E7B3
:102FD000C20ED11C88589F4FF60191838083E65C16
:102FE000FD4F21E030E0318320837801FEE4EF1AC9
:102FF000FDEFFF0AF7011182108240E050E0BA01B4
:1030000004960E948BCDF601808191812BE1FC0119
:103010003496DE01159601900D922A95E1F7FC0198
:10302000828193819C838B8389E49BE09A8389834B
:10303000AE014F5F5F4F6FE27AE0C8010E94FD0D65
:10304000CE0101960E94630DF701808191816F96F8
:103050000FB6F894DEBF0FBECDBFDF91CF911F91A9
:103060000F91FF90EF90DF90CF900895EF92FF9235
:103070000F931F93CF93DF93EC010E940BE08E011F
:103080000F5E1D4FF80180819E012A503E4F79014D
:103090008823A9F1C9010E9471CEF8018081815075
:1030A0008083BE01FDE88F9F600D711D11246A5E53
:1030B0007D4F21E041E0CE010E942811F80180817E
:1030C000FE0124E0829FE00DF11D1124EE5EFD4F14
:1030D0004081518162817381FE01E555FD4F40833E
:1030E000518362837383C7010E948BCDCE01DF9130
:1030F000CF911F910F91FF90EF900C94B9100E9407
:103100009EE0C7010E9471CE1A8221E030E045E0C6
:1031100050E06AE070E085E291E10E94FB218AEADA
:1031200092E00E9478278EE992E00E9478278091B1
:1031300087168823F9F010928716C0910A0ED0E006
:10314000CC0FDD1FC650D64E68817981882777FD68
:103150008095982F0E9459FE209165023091660259
:1031600040916702509168020E94BAFF181614F449
:1031700019821882DF91CF911F910F91FF90EF90EC
:103180000895EF92FF920F931F93CF93DF931F92B7
:10319000CDB7DEB78C017B01460FF70161917F014E
:1031A000F8018081918149830F94B309F8018081EE
:1031B000918101969183808349814E11EECF0F90CA
:1031C000DF91CF911F910F91FF90EF900895EF92B3
:1031D000FF920F931F93CF93DF931F92CDB7DEB76C
:1031E0008C017B01460FF8018081918149830F9406
:1031F000AB09F70181937F01F801808191810196EC
:103200009183808349814E11EECF0F90DF91CF9152
:103210001F910F91FF90EF9008950F931F93CF93FD
:10322000DF93CDB7DEB768970FB6F894DEBF0FBE59
:10323000CDBF80E390E3A0E3B0E08D839E83AF83B6
:10324000B88704E610E0188F0F8B44E0BE016B5F77
:103250007F4FCE0147960E94C11840E168EE76E1AB
:10326000CE0147960E94C11840E168EF76E1CE0199
:1032700047960E94C11840E168ED76E1CE0147967D
:103280000E94C11844E060ED76E1CE0147960E94AD
:10329000C11844E06CEC76E1CE0147960E94C1185B
:1032A00044E064ED76E1CE0147960E94C11844E007
:1032B0006CEB76E1CE0147960E94C11844E068E0CD
:1032C00077E1CE0147960E94C11844E068EC76E1B0
:1032D000CE0147960E94C11844E064EC76E1CE012D
:1032E00047960E94C11844E060EC76E1CE01479613
:1032F0000E94C1184CE06EE17EE0CE0147960E942C
:10330000C11887ED90E09E8B8D8B8DE290E09C8BB9
:103310008B8B1A8A198A80EF90E0988B8F8786E4CE
:1033200090E09E878D871C861B8642E0BE016B5E07
:103330007F4FCE0147960E94C11842E0BE016D5EEC
:103340007F4FCE0147960E94C11842E0BE016F5EDA
:103350007F4FCE0147960E94C11842E0BE01615FD7
:103360007F4FCE0147960E94C11842E0BE01635FC5
:103370007F4FCE0147960E94C11842E0BE01655FB3
:103380007F4FCE0147960E94C11844E06BE07EE07B
:10339000CE0147960E94C11844E06EE172E0CE0172
:1033A00047960E94C11844E066E272E0CE0147965B
:1033B0000E94C11844E06EE272E0CE0147960E947E
:1033C000C11844E068EB72E0CE0147960E94C11834
:1033D00044E064EB72E0CE0147960E94C11844E0DD
:1033E00060EB72E0CE0147960E94C11880E290E047
:1033F0009A87898742E0BE01675F7F4FCE0147967B
:103400000E94C11886E591E3A0E3B0E089839A8326
:10341000AB83BC83188F0F8B44E0BE016F5F7F4F7F
:10342000CE0147960E94C118ECE9F6E064918F0145
:10343000662361F0772767FD709586EC9AE10E941C
:10344000520D0F5F1F4FF8016491F2CFECE8F6E0E8
:1034500064918F01662361F0772767FD709586EC94
:103460009AE10E94520D0F5F1F4FF8016491F2CF55
:103470006AE070E086EC9AE10E94520D68960FB601
:10348000F894DEBF0FBECDBFDF91CF911F910F919A
:1034900008950F931F93CF93DF93CCE9D6E0FE01FD
:1034A00064918E01662361F0772767FD709586EC45
:1034B0009AE10E94520D0F5F1F4FF8016491F2CF05
:1034C000ECE7F6E064918F01662361F0772767FDF2
:1034D000709586EC9AE10E94520D0F5F1F4FF80124
:1034E0006491F2CF6AE070E086EC9AE10E94520D9E
:1034F000FE0164910CE916E0662361F0772767FD11
:10350000709586EC9AE10E94520D0F5F1F4FF801F3
:103510006491F2CF4091E8165091E9166091EA1655
:103520007091EB1684E796E00E9490264091EC168D
:103530005091ED166091EE167091EF1681E796E0CE
:103540000E9490264091F0165091F1166091F2166B
:103550007091F3168EE696E00E9490264091F41644
:103560005091F5166091F6167091F7168BE696E07D
:103570000E9490266FE27AE086EC9AE10E9425FA9A
:103580006AE070E086EC9AE10E94520DFE016491BF
:103590000CE916E0662361F0772767FD709586ECED
:1035A0009AE10E94520D0F5F1F4FF8016491F2CF14
:1035B000E1E5F6E064918F01662361F0772767FD0E
:1035C000709586EC9AE10E94520D0F5F1F4FF80133
:1035D0006491F2CF6AE070E086EC9AE10E94520DAD
:1035E000FE0164910CE916E0662361F0772767FD20
:1035F000709586EC9AE10E94520D0F5F1F4FF80103
:103600006491F2CF4091F8165091F9166091FA1634
:103610007091FB1688E496E00E9490264091FC167B
:103620005091FD166091FE167091FF1685E496E0AC
:103630000E94902640910017509101176091021747
:103640007091031782E496E00E949026409104173F
:103650005091051760910617709107178FE396E058
:103660000E9490266FE27AE086EC9AE10E9425FAA9
:103670006AE070E086EC9AE10E94520DFE016491CE
:103680000CE916E0662361F0772767FD709586ECFC
:103690009AE10E94520D0F5F1F4FF8016491F2CF23
:1036A000E1E2F6E064918F01662361F0772767FD20
:1036B000709586EC9AE10E94520D0F5F1F4FF80142
:1036C0006491F2CF6AE070E086EC9AE10E94520DBC
:1036D000FE0164910CE916E0662361F0772767FD2F
:1036E000709586EC9AE10E94520D0F5F1F4FF80112
:1036F0006491F2CF4091D8165091D9166091DA16A4
:103700007091DB1688E196E00E94D8264091DC1685
:103710005091DD166091DE167091DF1685E196E01E
:103720000E94D8264091E0165091E1166091E21671
:103730007091E31682E196E00E94D8264091E4164B
:103740005091E5166091E6167091E7168FE096E0CD
:103750000E94D8266FE27AE086EC9AE10E9425FA70
:103760006AE070E086EC9AE10E94520DFE016491DD
:103770000CE916E0662361F0772767FD709586EC0B
:103780009AE10E94520D0F5F1F4FF8016491F2CF32
:10379000EAEDF5E064918F01662361F0772767FD1C
:1037A000709586EC9AE10E94520D0F5F1F4FF80151
:1037B0006491F2CF6AE070E086EC9AE10E94520DCB
:1037C000FE0164910CE916E0662361F0772767FD3E
:1037D000709586EC9AE10E94520D0F5F1F4FF80121
:1037E0006491F2CF4091D0165091D1166091D216CB
:1037F0007091D31681ED95E00E9490264091CC16F1
:103800005091CD166091CE167091CF168EEC95E04A
:103810000E9490266FE27AE086EC9AE10E9425FAF7
:103820006AE070E086EC9AE10E94520DFE0164911C
:103830000CE916E0662361F0772767FD709586EC4A
:103840009AE10E94520D0F5F1F4FF8016491F2CF71
:10385000EBE1F5E064918F01662361F0772767FD66
:10386000709586EC9AE10E94520D0F5F1F4FF80190
:103870006491F2CF6AE070E086EC9AE10E94520D0A
:10388000FE0164910CE916E0662361F0772767FD7D
:10389000709586EC9AE10E94520D0F5F1F4FF80160
:1038A0006491F2CF4091D4165091D5166091D616FE
:1038B0007091D71682E195E00E9490264091BC1647
:1038C0005091BD166091BE167091BF168FE095E0C5
:1038D0000E949026409108175091091760910A178D
:1038E00070910B178CE095E00E94D8264091C81685
:1038F0005091C9166091CA167091CB1689E095E077
:103900000E9490264091C4165091C5166091C6162B
:103910007091C71686E095E00E9490264091C016EF
:103920005091C1166091C2167091C31683E095E064
:103930000E9490266FE27AE086EC9AE10E9425FAD6
:103940006AE070E086EC9AE10E94520DFE016491FB
:103950000CE916E0662361F0772767FD709586EC29
:103960009AE10E94520D0F5F1F4FF8016491F2CF50
:10397000E1EFF4E064918F01662361F0772767FD42
:10398000709586EC9AE10E94520D0F5F1F4FF8016F
:103990006491F2CF6AE070E086EC9AE10E94520DE9
:1039A000FE0164910CE916E0662361F0772767FD5C
:1039B000709586EC9AE10E94520D0F5F1F4FF8013F
:1039C0006491F2CF40911E0E50911F0E6091200E17
:1039D0007091210E88EE94E00E9490264091220E74
:1039E0005091230E6091240E7091250E85EE94E087
:1039F0000E9490264091260E5091270E6091280E2D
:103A00007091290E82EE94E00E9490266FE27AE097
:103A100086EC9AE10E9425FA6AE070E086EC9AE171
:103A20000E94520DFE0164910CE916E0662361F0DC
:103A3000772767FD709586EC9AE10E94520D0F5F23
:103A40001F4FF8016491F2CFE4EDF4E064918F012F
:103A5000662361F0772767FD709586EC9AE10E94F6
:103A6000520D0F5F1F4FF8016491F2CF6AE070E0D2
:103A700086EC9AE10E94520DFE01C4910CE916E019
:103A8000CC2369F06C2F772767FD709586EC9AE15F
:103A90000E94520D0F5F1F4FF801C491F1CF40916A
:103AA000B8025091B9026091BA027091BB028AECDF
:103AB00094E00E9490266091B4027091B5028091CA
:103AC000B6029091B7020E940AEDAB01BC0187ECEF
:103AD00094E00E9490266091B0027091B1028091B2
:103AE000B2029091B3020E9418EDAB01BC0184ECCC
:103AF00094E00E9490266FE27AE086EC9AE10E94C0
:103B000025FA6AE070E086EC9AE1DF91CF911F918F
:103B10000F910C94520DAF92BF92CF92DF92EF9221
:103B2000FF920F931F93CF93DF93CDB7DEB7E0974C
:103B30000FB6F894DEBF0FBECDBF80E1ECEBF2E034
:103B4000DE01919601900D928A95E1F780E1ECEC0F
:103B5000F2E0DE01519601900D928A95E1F780E145
:103B6000ECEDF2E0DE01119601900D928A95E1F7FD
:103B70006E0181E2C80ED11C88EEE82E86E1F82E97
:103B80008E010F5E1F4F68EF76E1AE014F5F5F4F12
:103B900098EDA92E96E1B92E20E030E0F601819152
:103BA0009191A191B1916F01F70181939193A193AB
:103BB000B1937F01F80181919191A191B1918F0110
:103BC000FB0181939193A193B193BF01FA0181917C
:103BD0009191A191B191AF01F50181939193A1933D
:103BE000B1935F012F5F3F4F24303105B9F60E943A
:103BF00087C780E090E8ABEBB4E48093D016909355
:103C0000D116A093D216B093D31680E090E0AAEF1D
:103C1000B4E48093CC169093CD16A093CE16B093B7
:103C2000CF161092D4161092D5161092D616109266
:103C3000D71680E29EE4A0E0B0E08093081790934E
:103C40000917A0930A17B0930B171092BC16109285
:103C5000BD161092BE161092BF1680E090E0A0EA4A
:103C6000B0E48093C8169093C916A093CA16B09377
:103C7000CB164DEC5CEC6CEC7EE34093C416509399
:103C8000C5166093C6167093C7168093C01690939E
:103C9000C116A093C216B093C3161092260E1092AE
:103CA000270E1092280E1092290E1092220E1092BA
:103CB000230E1092240E1092250E10921E0E1092BA
:103CC0001F0E1092200E1092210E8AE999E9A9E3A5
:103CD000B0EC80930B0E90930C0EA0930D0EB0934E
:103CE0000E0E83E393EFA7E9B3E480931E02909353
:103CF0001F02A0932002B09321028AE999E9A9E169
:103D0000BEEB8093260290932702A0932802B093E3
:103D100029028DEC9CECACECBDEB80932E029093D1
:103D20002F02A0933002B09331028FE195E8AFE902
:103D3000B1E48093B8029093B902A093BA02B09311
:103D4000BB0260E070E080E590E40E9403ED6093C8
:103D5000B4027093B5028093B6029093B7026DE3FC
:103D60007AE085EF91E40E9411ED6093B0027093C8
:103D7000B1028093B2029093B3020E9487E280E086
:103D800090E0A0E8BFE38093AC029093AD02A093D3
:103D9000AE02B093AF02ECE9F6E064918F016623C6
:103DA00061F0772767FD709586EC9AE10E94520DCD
:103DB0000F5F1F4FF8016491F2CFE8E8F4E06491DF
:103DC0008F01662361F0772767FD709586EC9AE195
:103DD0000E94520D0F5F1F4FF8016491F2CF6AE00D
:103DE00070E086EC9AE1E0960FB6F894DEBF0FBE65
:103DF000CDBFDF91CF911F910F91FF90EF90DF909A
:103E0000CF90BF90AF900C94520D0F931F93CF9310
:103E1000DF93CDB7DEB768970FB6F894DEBF0FBE5D
:103E2000CDBF84E690E0988F8F8B86E591E3A0E389
:103E3000B0E089839A83AB83BC8344E0BE016B5FAF
:103E40007F4FCE0147960E94E71843E050E0BE0145
:103E50006B5F7F4FCE0101960F943507892B09F0D8
:103E6000ECC040E168EE76E1CE0147960E94E7188B
:103E700040E168EF76E1CE0147960E94E71840E105
:103E800068ED76E1CE0147960E94E7180E9487C749
:103E900044E060ED76E1CE0147960E94E71844E0E9
:103EA0006CEC76E1CE0147960E94E71844E064EDA1
:103EB00076E1CE0147960E94E71844E06CEB76E18C
:103EC000CE0147960E94E71844E068E077E1CE0112
:103ED00047960E94E71844E068EC76E1CE014796E9
:103EE0000E94E71844E064EC76E1CE0147960E9418
:103EF000E71844E060EC76E1CE0147960E94E718AF
:103F00004CE06EE17EE0CE0147960E94E71842E069
:103F1000BE016B5E7F4FCE0147960E94E71842E0DC
:103F2000BE016D5E7F4FCE0147960E94E71842E0CA
:103F3000BE016F5E7F4FCE0147960E94E71842E0B8
:103F4000BE01615F7F4FCE0147960E94E71842E0B5
:103F5000BE01635F7F4FCE0147960E94E71842E0A3
:103F6000BE01655F7F4FCE0147960E94E71844E08F
:103F70006BE07EE0CE0147960E94E71844E06EE1D8
:103F800072E0CE0147960E94E71844E066E272E0D4
:103F9000CE0147960E94E71844E06EE272E0CE013F
:103FA00047960E94E71844E068EB72E0CE0147961E
:103FB0000E94E71844E064EB72E0CE0147960E944D
:103FC000E71844E060EB72E0CE0147960E94E718E4
:103FD00042E0BE01675F7F4FCE0147960E94E7181F
:103FE0000E9487E2ECE9F6E064918F01662361F0BC
:103FF000772767FD709586EC9AE10E94520D0F5F5E
:104000001F4FF8016491F2CFEAEAF4E064918F0166
:10401000662361F0772767FD709586EC9AE10E9430
:10402000520D0F5F1F4FF8016491F2CF6AE070E00C
:1040300086EC9AE10E94520D02C00E948B1D689688
:104040000FB6F894DEBF0FBECDBFDF91CF911F91A9
:104050000F910895FC01EB58FF4F118210823D979C
:104060009C012D593F4F31832083329628EE33E057
:10407000318320833296118210823296118210820F
:10408000329610823196118210820895FB0183814D
:1040900090E0982F88272481820F911D0895FC01BC
:1040A000E859FF4FA081B1818D599F4F8A179B0717
:1040B00080F48FEF8C93808191810197918380832D
:1040C0008091D70B9091D80B01979093D80B809348
:1040D000D70B08950F931F93CF93DF938C01EC01BF
:1040E000CD58DF4F88819981DC01ED91FC910480EE
:1040F000F581E02D1995892B41F4F801E259FF4F24
:104100008DEF9FEF918380830AC088819981DC01C4
:10411000ED91FC910680F781E02D19959927DF91AB
:10412000CF911F910F910895FC01E259FF4F118229
:1041300010820E946A200895CF93DF93EC01CE593C
:10414000DF4F28812223D1F09C01205A3F4FF901F3
:10415000508146E0FC01459FE00DF11D1124DB017B
:1041600001900D924A95E1F7F90180818F5F8F7080
:10417000808388818150888381E001C080E0DF9165
:10418000CF910895CF93DF93EC01CE59DF4F288173
:104190002E30D0F49C012F593F4FF901508146E059
:1041A000DC01459FA00DB11D1124FB0101900D9272
:1041B0004A95E1F7F90180818F5F8F708083888154
:1041C0008F5F888381E008C0FC01E259FF4F2BEF2D
:1041D0003FEF3183208380E0DF91CF910895FC0190
:1041E000E859FF4F0190F081E02D60836350710921
:1041F0006230710520F4FC01E059FF4F10820895F0
:104200002091D70B3091D80B2F5F3F4F3093D80BB5
:104210002093D70BFC01E859FF4F208131812F5F9C
:104220003F4F3183208370E00C94EF20CF92DF92D8
:10423000EF92FF921F93CF93DF93EC010E949420A3
:10424000182F6E018EE6C80ED11CD6012D913C911F
:104250002D3F3F4F81F4FE01EE59FF4F80818823AF
:1042600009F45EC0C958DF4FE881F981309709F43D
:1042700057C0199555C07E01E8E6EE0EF11CD70136
:10428000ED91FC918081813021F0B0F0823091F08D
:104290001EC0173099F0153121F0163009F04AC0D0
:1042A0003BC0CE010E944F208CEF9FEFF60191831F
:1042B000808340C0153021F01730E1F564E004C080
:1042C000CE010E944F2063E0CE010E940021D70161
:1042D000ED91FC9180818350823008F030C07E01E6
:1042E000F0E7EF0EF11CD7012C91222331F18091E0
:1042F000D60B81278093D60BE22FF0E0E053F44FEA
:1043000010832530A1F481110DC060ED7BE0CE015A
:104310000E94C220F7011082CE010E944F200AC0E5
:1043200080E009C088EF9FEFD6018D939C932F5FAB
:10433000F701208381E090E002C0812FDBCFDF9185
:10434000CF911F91FF90EF90DF90CF900895AF92A3
:10435000BF92CF92DF92EF92FF920F931F93CF9372
:10436000DF93EC010E949EF46B017C018E010659E3
:104370001F4FD8018D919C91AA2797FDA095BA2F28
:10438000C80ED91EEA1EFB1E5E01B8E6AB0EB11CBC
:104390000E949EF46C157D058E059F05D8F4CE0114
:1043A0000E941621019779F40E949EF46B017C0112
:1043B000F80180819181AA2797FDA095BA2FC80E98
:1043C000D91EEA1EFB1ED501ED91FC918081811161
:1043D000DFCF06C0C259DF4F8FEF9FEF99838883ED
:1043E000DF91CF911F910F91FF90EF90DF90CF90D1
:1043F000BF90AF900895BF92CF92DF92EF92FF925D
:104400000F931F93CF93DF938C01D62EC42E790187
:104410000E94A721F801E259FF4F11821082E801A2
:10442000CD58DF4F88819981DC01ED91FC9101909D
:10443000F081E02D61E0199588819981DC01ED9191
:10444000FC910190F081E02D6D2D19958881998165
:10445000DC01ED91FC910190F081E02D6C2D19951E
:10446000BB24B394BC24BD2488819981DC01ED91E7
:10447000FC910190F081E02D6F2D1995BF2488816A
:104480009981FF24DC01ED91FC910190F081E02DF8
:104490006E2D199588819981DC01ED91FC916B2D30
:1044A0006E250190F081E02D199561E0C8010E9410
:1044B0000021DF91CF911F910F91FF90EF90DF903E
:1044C000CF90BF900895AF92BF92CF92DF92EF92BC
:1044D000FF920F931F93CF93DF935C016B017A01DF
:1044E000EA0109900020E9F72197C41BD50BCF3FC3
:1044F000D10511F00CF04AC00E94A72185010D588A
:104500001F4FD8018D919C91DC01ED91FC910190A0
:10451000F081E02D62E01995F80180819181DC0144
:10452000ED91FC910190F081E02D6C2D1995B2E098
:10453000CB26F80180819181DC01ED91FC91019005
:10454000F081E02D6C2F1995CC26DD26D7016C91DA
:10455000F80180819181DC01ED91FC910190F08165
:10456000E02D662351F01995F70181917F0199277C
:1045700087FD9095C826D926E9CF6C2D199561E065
:10458000C5010E94002180E090E002C08FEF9FEF04
:10459000DF91CF911F910F91FF90EF90DF90CF901F
:1045A000BF90AF90089589589F4FFC01718360833D
:1045B0000895CF93DF93EC01FC01ED58FF4F718319
:1045C000608360E00E940021FE01E05AFF4F1082EC
:1045D00031961082CE59DF4F1882DF91CF91089526
:1045E0000F931F93CF93DF938C01C8EED6E1F801B0
:1045F00061917191819191918F01299139914991A5
:1046000059910F948C000E9426FEF80164877587EB
:1046100086879787F6E1C83FDF0749F7DF91CF919B
:104620001F910F9108952F923F924F925F926F9238
:104630007F928F929F92AF92BF92CF92DF92EF9232
:10464000FF920F931F93CF93DF93CDB7DEB73C015B
:10465000CB01BA0118012901F301608371838283C0
:1046600093830483158326833783C086D186E286AD
:10467000F38684869586A686B78611E020E030E032
:10468000A9010E94B7FD811101C010E020E030E0D7
:10469000A901C201B1010E94B7FD882311F092E087
:1046A00001C090E0192B20E030E0A901C701B6015C
:1046B0000E94B7FD882311F094E001C090E0192B0F
:1046C00020E030E0A901C501B4010E94B7FD8823B4
:1046D00011F088E001C080E0182BF30111A3C301A1
:1046E000DF91CF911F910F91FF90EF90DF90CF90CE
:1046F000BF90AF909F908F907F906F905F904F9002
:104700003F902F900C94F0228F929F92AF92BF9285
:10471000CF92DF92EF92FF920F931F93CF93DF938D
:10472000CDB7DEB7FC0110A20E941323DF91CF9119
:104730001F910F91FF90EF90DF90CF90BF90AF90BF
:104740009F908F9008958F929F92AF92BF92CF9239
:10475000DF92EF92FF920F931F93812C912C5401C3
:10476000750164010AE919E929E13EE3B501A401F3
:1047700089ED9BE00E9484231F910F91FF90EF90A1
:10478000DF90CF90BF90AF909F908F900895FC01E5
:10479000659175918591949108954F925F926F9272
:1047A0007F928F929F92AF92BF92CF92DF92EF92C1
:1047B000FF920F931F934090150250901602609045
:1047C000170270901802812C912CEAEFAE2EE5E4CE
:1047D000BE2E8092150290921602A0921702B092FD
:1047E000180260933A0E70933B0E80933C0E9093A8
:1047F0003D0E20933E0E30933F0E4093400E50935B
:10480000410EE092420EF092430E0093440E10933C
:10481000450EEAE0FEE0FF93EF93F5E58F2E982C2E
:10482000F5E0AF2EF3E4BF2EA6E4CA2EAEE0DA2EFA
:104830000E9420BC0E940BE040921502509216028A
:1048400060921702709218020F900F901F910F91B3
:10485000FF90EF90DF90CF90BF90AF909F908F90A0
:104860007F906F905F904F90089580911502909186
:104870001602A0911702B09118028093DE0D90935A
:10488000DF0DA093E00DB093E10D80914C0290916B
:104890004D0290934B0E80934A0E84E690E09093E5
:1048A0004D0280934C020E949EF460933D0C7093E5
:1048B0003E0C80933F0C9093400C81E00C946ED89A
:1048C00080E00E946ED88091DE0D9091DF0DA09166
:1048D000E00DB091E10D8093150290931602A09324
:1048E0001702B093180280914A0E90914B0E90934C
:1048F0004D0280934C020E949EF460933D0C709395
:104900003E0C80933F0C9093400C08952F923F9261
:104910004F925F926F927F928F929F92AF92BF92CF
:10492000CF92DF92EF92FF920F931F93CF93DF937B
:104930008DE692E00E9470F0E6E5F2E06081718120
:1049400082819381609315027093160280931702FF
:104950009093180220E030E040E752E40E94BEFD50
:104960004B015C01CEE3DEE0288139814A815B8125
:10497000EAE3FEE06081718182819381BAE02B2EAF
:10498000BEE03B2E3F922F9216E4C12E1EE0D12EA8
:10499000E12CF12C00E211EC0E9420BC0E940BE003
:1049A00082E00E9474E04B015C01288139814A81D8
:1049B0005B81EAE3FEE06081718182819381850100
:1049C00074010E9480C686E59EE00E94C7239B0179
:1049D000AC01C501B4010E94DEFC2B013C0120E0CA
:1049E00030E040E752E46091150270911602809128
:1049F0001702909118020E94BEFD4B015C012881B4
:104A000039814A815B81EAE3FEE0608171818281C4
:104A100093813F922F92830172010E9420BC0E94D9
:104A20000BE020E030E040E85EE3E6E5F2E06081A4
:104A30007181828193810F948C004B015C016093A2
:104A4000150270931602809317029093180286E560
:104A50009EE00E94C7236B017C0120E030E040E72C
:104A600052E4C501B4010E94BEFD4B015C01A701E7
:104A70009601C701B6010E94DEFC9B01AC01C30197
:104A8000B2010E94DDFC7B018C01288139814A81C1
:104A90005B81EAE3FEE060817181828193813F92D4
:104AA0002F92F6E4CF2EFEE0DF2E0E9420BC0E9463
:104AB0000BE082E00E9474E07B018C016093420E67
:104AC0007093430E8093440E9093450E2881398154
:104AD0004A815B81EAE3FEE060817181828193819A
:104AE0000E9480C60F900F900F900F900F900F9024
:104AF000DF91CF911F910F91FF90EF90DF90CF90BA
:104B0000BF90AF909F908F907F906F905F904F90ED
:104B10003F902F90089586E69EE00E94C723209143
:104B20001E0E30911F0E4091200E5091210E0E94BA
:104B3000DEFC08954F925F926F927F928F929F92C8
:104B4000AF92BF92CF92DF92EF92FF920F931F939B
:104B5000CF93DF9300D01F92CDB7DEB72B013C017E
:104B600049015A0120913E0E30913F0E4091400E76
:104B70005091410E60913A0E70913B0E80913C0E27
:104B800090913D0E0E94CD2380910A0EC090420E5E
:104B9000D090430EE090440EF090450E20E030E0BF
:104BA00040EC51E4811111C0C501B4010E94DDFC4B
:104BB00069837A838B839C8320E030E044E951E46D
:104BC000C301B2010E94DDFC10C0C501B4010E9406
:104BD000DDFC69837A838B839C8320E030E04CE8A2
:104BE00051E4C301B2010E94DEFC870176012981F4
:104BF0003A814B815C810E94CD230E948624C09023
:104C0000420ED090430EE090440EF090450EEEED33
:104C1000F6E064918F01662361F0772767FD709558
:104C200086EC9AE10E94520D0F5F1F4FF8016491CC
:104C3000F2CFE9EDF6E064918F01662361F077270A
:104C400067FD709586EC9AE10E94520D0F5F1F4F31
:104C5000F8016491F2CF22E030E0B301A20186ECCA
:104C60009AE10E942CFCE4EDF6E064918F0166234A
:104C700061F0772767FD709586EC9AE10E94520DEE
:104C80000F5F1F4FF8016491F2CF22E030E0B501D1
:104C9000A40186EC9AE10E942CFCEFECF6E0649112
:104CA0008F01662361F0772767FD709586EC9AE1A6
:104CB0000E94520D0F5F1F4FF8016491F2CF22E066
:104CC00030E0B701A60186EC9AE10E942CFCEDECE5
:104CD000F6E064918F01662361F0772767FD709598
:104CE00086EC9AE10E94520D0F5F1F4FF80164910C
:104CF000F2CFC701B6010F900F900F900F90DF9188
:104D0000CF911F910F91FF90EF90DF90CF90BF90C8
:104D1000AF909F908F907F906F905F904F9008958D
:104D2000CF92DF92EF92FF92CF93DF93EC016A0173
:104D30007B01FE016491662349F0772767FD70953A
:104D400086EC9AE10E94520D2196F3CF22E030E0EA
:104D5000B701A60186EC9AE1DF91CF91FF90EF9029
:104D6000DF90CF900C942CFCCF92DF92EF92FF92C9
:104D7000CF93DF93EC016A017B01FE01649166230E
:104D800049F0772767FD709586EC9AE10E94520DF5
:104D90002196F3CF22E030E0B701A60186EC9AE13C
:104DA000DF91CF91FF90EF90DF90CF900C942CFC8F
:104DB000CF92DF92EF92FF92CF93DF93EC016A01E3
:104DC0007B01FE016491662349F0772767FD7095AA
:104DD00086EC9AE10E94520D2196F3CF2AE030E052
:104DE000B701A60186EC9AE1DF91CF91FF90EF9099
:104DF000DF90CF900C9417FBCF93DF932091470C5B
:104E00003091480C243031050CF06FC04091490CB2
:104E100050914A0C60E6649F9001659F300D11240B
:104E2000BC01C9018F5A934F0F942E07EAE8FEE0A8
:104E30006491EF01662359F0772767FD709586EC42
:104E40009AE10E94520D2196FE016491F3CFE3ECAA
:104E5000FCE06491EF01662359F0772767FD7095B8
:104E600086EC9AE10E94520D2196FE016491F3CFE7
:104E70008091490C90914A0C20E6289FB001299F0F
:104E8000700D11246F5A734F86EC9AE10E9425FA37
:104E9000E1ECFCE06491EF01662359F0772767FDB0
:104EA000709586EC9AE10E94520D2196FE01649164
:104EB000F3CF6AE070E086EC9AE10E94520D809197
:104EC000490C90914A0C019664E070E00F947A01CD
:104ED00090934A0C8093490C8091470C9091480C18
:104EE00001969093480C8093470CDF91CF910895E1
:104EF000CF93DF932091470C3091480C243031053B
:104F00000CF06FC04091490C50914A0C60E6649FD0
:104F10009001659F300D1124BC01C9018F5A934F38
:104F20000F94C006EAE8FEE06491EF01662359F0B1
:104F3000772767FD709586EC9AE10E94520D2196C5
:104F4000FE016491F3CFE6EBFCE06491EF01662390
:104F500059F0772767FD709586EC9AE10E94520D13
:104F60002196FE016491F3CF8091490C90914A0CF7
:104F700020E6289FB001299F700D11246F5A734FAE
:104F800086EC9AE10E9425FAE4EBFCE06491EF01E3
:104F9000662359F0772767FD709586EC9AE10E94A9
:104FA000520D2196FE016491F3CF6AE070E086EC29
:104FB0009AE10E94520D8091490C90914A0C019601
:104FC00064E070E00F947A0190934A0C8093490C4E
:104FD0008091470C9091480C01969093480C8093D7
:104FE000470CDF91CF910895CF93DF9326E040E9FE
:104FF00050ED63E070E086EC9AE10E941BF8EBEA6A
:10500000FCE06491EF01662359F0772767FD709506
:1050100086EC9AE10E94520D2196FE016491F3CF35
:105020006AE070E086EC9AE10E94520DEAE8FEE048
:105030006491EF01662359F0772767FD709586EC40
:105040009AE10E94520D2196FE016491F3CFE5EAA8
:10505000FCE06491EF01662359F0772767FD7095B6
:1050600086EC9AE10E94520D2196FE016491F3CFE5
:105070006AE070E086EC9AE10E94520D6DE273E006
:1050800086EC9AE10E9442FA26E040E45DE063E0AB
:1050900070E083E69BE10E941BF863E67BE185E21A
:1050A00091E10E94D9226EE57CE385E291E10E94C4
:1050B000D32261E089E00E9471F660E089E00E94FD
:1050C000AAF664E670E080E090E00E94CDF461E032
:1050D00089E00E94AAF66CEA7DE080E090E00E9400
:1050E000CDF468EE73E080E090E00E94CDF420E023
:1050F00030E045E050E06AE070E085E291E10E9436
:10510000FB2110924D0C10924E0C10924F0C1092ED
:10511000500C0E94051F61E08AE00E9471F660E079
:105120008AE00E94AAF661E08AE00E94AAF66FEF88
:1051300070E08CE00E9457F56FEF70E08BE00E940A
:1051400057F56FEF70E08DE00E9457F50E94C5E5BE
:105150000E9465BADF91CF910C946BDFAF92BF9242
:10516000CF92DF92EF92FF920F931F93CF93DF9333
:10517000CDB7DEB7DA950FB6F894DEBF0FBECDBF60
:105180008091260C81110DC00E949EF46093000C4A
:105190007093010C8093020C9093030C81E0809338
:1051A000260C8091710E882309F4D5C00E949EF4CC
:1051B0000091000C1091010C2091020C3091030C15
:1051C000601771078207930708F4F1C16091F01925
:1051D0007091F1198091F2199091F3190E9426FEB5
:1051E000D62EC72E20E030E040E05FE36091E61964
:1051F0007091E7198091E8199091E9190E94DEFCFD
:105200000E9426FEB62EA72E6091EC197091ED1922
:105210008091EE199091EF190E9426FE7F936F9373
:1052200019E3E12E13E0F12EFF92EF928E010F5F52
:105230001F4F1F930F930F945207A80160E070E077
:1052400085E291E10E946322CF92DF92FF92EF927A
:105250001F930F930F945207A80162E270E085E25A
:1052600091E10E946322AF92BF928EE393E09F93FD
:105270008F931F930F930F945207A80169E070E07A
:1052800085E291E10E9463220FB6F894DEBF0FBE63
:10529000CDBF80916810882319F1809112119091EF
:1052A0001311A0911411B09115110097A105B1052A
:1052B000B9F0BC01CD016D597F4F8F4F9F4F24E650
:1052C00030E040E050E00F948E0160911A1170912F
:1052D0001B1180911C1190911D110F948E0101C022
:1052E00020E01F922F93B3E4EB2EB3E0FB2EFF924E
:1052F000EF921F930F930F945207A80165E270E09D
:1053000085E291E10E94632280914D028F9380910A
:105310004C028F93FF92EF921F930F930F945207BB
:10532000A80164E270E085E291E10E9463220E949C
:105330009EF468577C4E8F4F9F4F6093000C709384
:10534000010C8093020C9093030C0FB6F894DEBF0F
:105350000FBECDBF2CC180916E0E882309F427C1EA
:105360000E949EF40091000C1091010C2091020CFF
:105370003091030C601771078207930708F417C177
:105380006091F0197091F1198091F2199091F319CF
:105390000E9426FED62EC72E20E030E040E05FE3DC
:1053A0006091E6197091E7198091E8199091E919D7
:1053B0000E94DEFC0E9426FEB62EA72E6091EC19FC
:1053C0007091ED198091EE199091EF190E9426FECF
:1053D0007F936F93A9E3EA2EA3E0FA2EFF92EF9258
:1053E0008E010F5F1F4F1F930F930F945207A80159
:1053F00068E270E085E291E10E946322CF92DF9241
:10540000FF92EF921F930F930F945207A8016AE245
:1054100070E085E291E10E946322AF92BF928EE339
:1054200093E09F938F931F930F930F945207A801BC
:1054300069E270E085E291E10E94632260913A0E98
:1054400070913B0E80913C0E90913D0E0E942BFE80
:105450009B0140E050E06FE070E085E291E10E9446
:10546000FB2160913E0E70913F0E8091400E909115
:10547000410E0E942BFE9B0141E050E06FE070E086
:1054800085E291E10E94FB216091420E7091430EF2
:105490008091440E9091450E0E942BFE9B0142E0AC
:1054A00050E06FE070E085E291E10E94FB216091A5
:1054B000FA197091FB19882777FD8095982F0E9423
:1054C00059FE20E030E040EA50E40E94DDFC9B0100
:1054D000AC010FB6F894DEBF0FBECDBF6091EC19E2
:1054E0007091ED198091EE199091EF190E94BAFF19
:1054F00087FD4FC06091FC197091FD19882777FDD9
:105500008095982F0E9459FE20E030E040EA50E458
:105510000E94DDFC9B01AC016091F0197091F119C2
:105520008091F2199091F3190E94BAFF87FD31C062
:105530008091630E882369F16DEF73E086EC9AE148
:105540000E9442FA80915E02893409F045C06BE402
:1055500073E086EC9AE10E9442FA4DE553E06BE07D
:1055600070E085E291E10E94632220E030E043E1B7
:1055700050E06AE070E085E291E10E94FB214DE598
:1055800053E06BE070E085E291E10E9463221092AB
:10559000630E0E949EF468517C4F8F4F9F4F609323
:1055A000000C7093010C8093020C9093030C85E225
:1055B00091E10E941621D3950FB6F894DEBF0FBE7D
:1055C000CDBFDF91CF911F910F91FF90EF90DF90B2
:1055D000CF90BF90AF9008958235A9F440EA53E090
:1055E0006BE070E085E291E10E94632220E030E010
:1055F00043E150E06AE070E085E291E10E94FB2126
:1056000040EA53E0BECF42EE53E06BE070E085E24B
:1056100091E10E94632220E030E043E150E06AE043
:1056200070E085E291E10E94FB21B1CF8091410CB5
:105630009091420C60E070E001960D940B04809113
:10564000410C9091420C4AE050E060E070E001961D
:105650000D947C05682F772767FD709520914B0C82
:1056600030914C0C40E6429FC001439F900D1124A5
:105670008F5A934F0F941A079093420C8093410CCA
:1056800021E0892B09F420E0822F0895CF92DF9248
:10569000EF92FF92892B31F4FF90EF90DF90CF9043
:1056A0000C948B25C0901E02D0901F02E090200227
:1056B000F090210220E030E0A901C701B6010E946C
:1056C000BAFF181644F083E3C82E83EFD82E87E97B
:1056D000E82E83E4F82EC701B601FF90EF90DF902B
:1056E000CF9008958F929F92AF92BF92CF92DF9208
:1056F000EF92FF920F931F93CF93DF93009709F0E0
:10570000CEC020910A0E222329F1822F90E00E9420
:10571000462B60933A0E70933B0E80933C0E909311
:105720003D0E1092120E1092130E1092140E109243
:10573000150E80911E0290911F02A0912002B0913F
:1057400021028093320290933302A0933402B093EB
:105750003502E9C020910E0230910F02223031054E
:1057600009F09DC086E69EE00E94C72320911E0E90
:1057700030911F0E4091200E5091210E0E94DEFCB0
:1057800060933A0E70933B0E80933C0E90933D0EC7
:105790008EE79EE00E94C72320911E0E30911F0EBF
:1057A0004091200E5091210E0E94DEFC6093120E5B
:1057B0007093130E8093140E9093150E82E79EE063
:1057C0000E94C72320911E0E30911F0E4091200E83
:1057D0005091210E0E94DEFC4B015C0100911E02E3
:1057E00010911F02D0912002C091210223E333EFD8
:1057F00047E953E4B8018D2F9C2F0E94BAFF181679
:105800002CF0B3E3A3EFF7E9E3E403C0B02FA12F3B
:10581000FE01C0900602D0900702E0900802F090CE
:105820000902A70196016B2F7A2F8F2F9E2F0E94BE
:10583000DDFC9B01AC01C501B4010E94B7FD87FFEF
:105840000FC082E79EE00E94C72320911E0E309178
:105850001F0E4091200E5091210E0E94DEFC16C0BA
:1058600023E333EF47E953E4B8018D2F9C2F0E94C7
:10587000BAFF181624F003E313EFD7E9C3E4A70136
:105880009601B8018D2F9C2F0E94DDFC609332029F
:1058900070933302809334029093350244C0EC013C
:1058A000CC0FDD1FCC0FDD1FCE018A59914F0E9416
:1058B000C7239E01265C314F79018E01025E114F94
:1058C000F80120813181428153810E94DEFCF70181
:1058D0006083718382839383CE018258914F0E94AB
:1058E000C7239E012E5E314F7901F801208131815D
:1058F000428153810E94DEFCF701608371838283C1
:105900009383CE018E58914F0E94C723CE5CDD4F0A
:10591000F80120813181428153810E94DEFC68833D
:1059200079838A839B83DF91CF911F910F91FF90A1
:10593000EF90DF90CF90BF90AF909F908F900895A1
:105940002F923F924F925F926F927F928F929F928F
:10595000AF92BF92CF92DF92EF92FF920F931F937D
:10596000CF93DF93CDB7DEB728970FB6F894DEBF9D
:105970000FBECDBF1C01FC01E55BF14F64900097A9
:1059800021F0772467FC70940BC080910A0E81117E
:1059900004C066246A94762C03C066246394712C38
:1059A000C101880F991F880F991F98878F83865C84
:1059B000914F9C838B83DC011D921D921D921C9242
:1059C0001397E090420EF090430E0091440E109118
:1059D000450E20913E0E30913F0E4091400E509169
:1059E000410E60913A0E70913B0E80913C0E909169
:1059F0003D0EE6E4CE2EEEE0DE2E0E9480C68F81C4
:105A00009885865A914F0E94C7236B017C01B30190
:105A1000882777FD8095982F0E9459FE2B013C0125
:105A2000EF81F885E950F24FFA83E98320E030E016
:105A300040EC5FE3C701B6010F948C00A301920113
:105A40000F948C00A981BA816D937D938D939C9363
:105A50001397EF81F885E25BFD4FFE83ED83608154
:105A600071818281938160931502709316028093F5
:105A700017029093180220E030E040E752E40E94C1
:105A8000BEFD4B015C01E090FF0DF090000E009117
:105A9000010E1091020E2091FB0D3091FC0D4091F2
:105AA000FD0D5091FE0D6091F70D7091F80D8091F4
:105AB000F90D9091FA0DAAE0BEE0BF93AF93F3E029
:105AC000CF2EFEE0DF2E0E9420BC0E940BE0AB81B7
:105AD000BC811D921D921D921C921397E090420E64
